:020000040800F2
:1000000000EF01209D3000084D0200084F0200085B
:1000100053020008570200085B02000800000000BD
:100020000000000000000000000000005F02000867
:100030006102000800000000630200086502000879
:10004000B7300008B7300008B7300008B7300008F4
:10005000B7300008B7300008B7300008B7300008E4
:10006000B7300008B7300008B7300008B7300008D4
:10007000B7300008B7300008B7300008B7300008C4
:10008000B7300008B7300008B7300008B7300008B4
:10009000B7300008B7300008B7300008B7300008A4
:1000A000B7300008B7300008B7300008B730000894
:1000B000B7300008A30F0008CD220008B7300008B1
:1000C000B7300008B7300008B7300008B730000874
:1000D000B730000813300008B7300008B730000808
:1000E000B7300008B7300008B7300008B730000854
:1000F000B7300008B7300008B7300008B730000844
:10010000B7300008B7300008B7300008B730000833
:10011000B7300008B7300008B7300008B730000823
:10012000B7300008B7300008B7300008B730000813
:10013000B7300008B7300008B7300008B730000803
:10014000B7300008B7300008B7300008B7300008F3
:10015000B7300008B7300008B7300008B7300008E3
:10016000B7300008B7300008B7300008B7300008D3
:10017000B7300008B73000088F230008B7300008F8
:10018000B7300008B7300008DFF80CD005F030FBBE
:10019000004800479D01000800EF012008B54FF41A
:1001A000A06002F08DFFA82002F052FE4FF4E13073
:1001B00002F0DDFE00F060F902E01DA005F074FB26
:1001C00002F002FA0028F8D100F082FE00F06CFB89
:1001D000002005F0CAF9682000F0FAFC00F081F96F
:1001E000532140F2E73002F01FF800F09BFF44F685
:1001F0009960F0231A4600210090084601F0A4F807
:100200001049012000F073FD00F0B0FD02F014F978
:100210004FF48063DA004FF4E1410B4802F0D8F864
:10022000F021084602F0FEFB02F098F800BFFEE75E
:1002300043616D65726120696E6974204552520D8B
:100240000A00000055008800B0010020704700BF80
:10025000FEE700BFFEE700BFFEE700BFFEE7704716
:1002600070477047704700000CB500200190009067
:100270007648006840F480307449086000BF7348D5
:10028000006800F4003000900198401C0190009834
:1002900018B90198B0F5A04FF1D16C48006800F48E
:1002A000003010B10120009001E000200090009883
:1002B000012846D165484030006840F080506349CD
:1002C000403108606248006840F44040604908607E
:1002D0005E48083000685D490831086008460068DB
:1002E00040F4004008600846006840F4A0500860F0
:1002F0005848091F0860081F006840F08070091FF7
:10030000086000BF5148006800F000700028F9D074
:1003100040F20570504908604C480830006820F0F1
:1003200003004A49083108600846006840F00200AE
:10033000086000BF45480830006800F00C0008283D
:10034000F8D10CBD10B54548006840F47000434931
:1003500008603E48006840F001003C490860002009
:100360003A4908310860394800683D490840374932
:1003700008603C48091D0860081F006820F48020C0
:10038000091F0860002031490C310860FFF76CFF3D
:100390004FF0006031498039086010BD70B5002011
:1003A0000022022300240221284D08352D6805F083
:1003B0000C0020B1042806D0082834D107E02A4DCB
:1003C0002A4E356033E02A4D284E35602FE01F4D10
:1003D0002D1D2D68C5F380541C4D2D1D2D6805F075
:1003E0003F0154B1224DB5FBF1F5184E361D36686C
:1003F000C6F3881605FB06F209E01B4DB5FBF1F5C7
:10040000124E361D3668C6F3881605FB06F20F4DF0
:100410002D1D2D68C5F301456D1C6B00B2FBF3F576
:10042000124E356003E0104D104E356000BF00BF26
:10043000064D08352D68C5F303150E4E705D0B4D46
:100440002D68C540094E356070BD0000003802407F
:100450000070004008544007003C024088ED00E076
:10046000FFFFF6FE103000240024F40000000020FE
:1004700000127A00040000201CB50121042003F0C2
:10048000B3F94FF40050009001208DF804000020D3
:100490008DF8060003208DF8050001208DF8070077
:1004A0006946044802F002FF4FF40051014802F08F
:1004B00079FF1CBD0008024010B55A480478007846
:1004C000012802D1584801F013FE5648007802284E
:1004D00002D1564801F00CFE002052490870204617
:1004E00010BD1CB50121042003F07EF900208DF819
:1004F0000400012000908DF8070003208DF805000E
:1005000069464B4802F0D2FE00204A49C8710120DA
:1005100088711CBD10B500240121454802F028FF58
:1005200000B90124204610BD10B543480078434966
:100530000870FFF7EFFF404908704048007848B95D
:1005400008460078012805D13A48807910B100208A
:100550003849088039480078012810D13648007899
:1005600001280CD133480088B0F5487F07DC3148BA
:10057000807920B12F48008814302E4908802F48F8
:10058000007801280DD12B480088B0F5487F08DDA0
:100590002848807928B1022022490870C9202549BD
:1005A000088026480078012828D12348007828BBF5
:1005B00020480088C82821DC1E48C07918B90120CD
:1005C000184908701AE01B48C079012816D119484B
:1005D000007928B9012017490871002048800DE0F2
:1005E00014480079012809D112484088C82805DC40
:1005F00003200C49087000200E4908710D4800794D
:1006000070B10C48408814300A4948800846408838
:10061000C82805DD0120034908700020054908713C
:1006200010BD000014000020340000204400002011
:1006300000080240160000201E0000201F000020BD
:1006400010B5044600BF0221834804F081FE002853
:10065000F9D02146804804F032FE00BF01217E48D7
:1006600004F076FE0028F9D07B4804F025FEC0B2E5
:1006700010BD00B587B00121022003F0B5F80121BB
:10068000880303F0FAF84FF46040059002208DF8DB
:10069000180000208DF81A0003208DF819000120A1
:1006A0008DF81B0005A96D4802F000FE05220D2102
:1006B0006A4802F086FE05220E21684802F081FE9B
:1006C00005220F21654802F07CFE0121880303F01A
:1006D00029F900214FF4804003F024F90020ADF8FF
:1006E00000004FF48270ADF802000020ADF8040065
:1006F0000220ADF806000120ADF808004002ADF878
:100700000A003820ADF80C000020ADF80E000720DC
:10071000ADF810006946504804F056FC01214E48DF
:1007200004F04CFDFF20FFF78BFF07B000BD10B5B4
:100730000446494800884FF6C7710840464908807A
:1007400008460088204308800121434804F036FD14
:1007500010BD00B587B00121022003F045F801214A
:10076000084603F041F80121080303F097F802203E
:100770008DF8040000208DF80600A02000900020D5
:100780008DF8070003208DF805006946344802F013
:100790008DFD01208DF8040000208DF80600082052
:1007A000009000208DF8070003208DF805006946B1
:1007B0002A4802F07BFD05221146294802F001FE7D
:1007C00005220721264802F0FCFD0020ADF81400A8
:1007D0000120ADF810000220ADF80E000720ADF8A2
:1007E00018000020ADF80C004FF44040ADF80800B0
:1007F0000020ADF816004FF48270ADF80A004FF4F7
:100800000070ADF8120002A9164804F0DDFB0122C9
:100810000221144804F071FD0121124804F0CEFCBD
:1008200007B000BD10B5044608210C4802F0BCFD1D
:1008300000BF02210B4804F08BFD0028F9D02146AF
:10084000084804F03CFD012002F01CFB082103488D
:1008500002F0A8FD10BD0000003800400004024076
:10086000000002400030014010B500240020D149B2
:1008700008609020FFF7E4FE0020FFF7E1FE002073
:10088000FFF7DEFE0020FFF7DBFEFF20FFF7D8FEBC
:1008900044EA0024FF20FFF7D3FE04430120C649A9
:1008A000C1F8B002204610BD1CB50121022002F0A3
:1008B0009BFF4FF48050009001208DF80400002031
:1008C0008DF8060003208DF8050001208DF8070043
:1008D0006946BA4802F0EAFC0120B6490860FFF711
:1008E000C8FE0820FFF723FFFFF7BEFFB4490880CA
:1008F0001CBD10B500240020AE4908600520FFF79C
:100900009FFEFF20FFF79CFE04460120AA49C1F884
:10091000B002204610BD10B504460020A54908606D
:100920000120FFF78DFE2046FFF78AFE0120A24935
:10093000C1F8B00210BD10B500209E490860062025
:10094000FFF77EFE01209C49C1F8B00210BD10B532
:100950000020984908600420FFF772FE01209649A4
:10096000C1F8B00210BD2DE9F04106460C4617460D
:100970000020904908600320FFF762FEC4F307409F
:10098000FFF75EFEC4F30720FFF75AFEE0B2FFF761
:1009900057FE002505E0FF20FFF752FE7055681C4A
:1009A00085B2BD42F7DB012082490860BDE8F081D5
:1009B00010B500BFFFF79DFF00F001000028F9D13E
:1009C00010BD2DE9F04106460C461746FFF7B3FF70
:1009D0000020784908600220FFF732FEC4F3074088
:1009E000FFF72EFEC4F30720FFF72AFEE0B2FFF761
:1009F00027FE002504E0705DFFF722FE681C85B22B
:100A0000BD42F8DB01206B490860FFF7D1FFBDE86C
:100A1000F0812DE9F04107460E461446F0B2C0F5CC
:100A20008075AC4200DC254612E02A463146384645
:100A3000FFF7C7FFAC4200D10BE02F442E44601BF0
:100A400084B2B4F5807F02DD4FF4807500E0254666
:100A5000EBE700BFBDE8F08110B50446214659A080
:100A600004F022FF2403FFF766FFFFF7A1FF002039
:100A7000504908602020FFF7E3FDC4F30740FFF76B
:100A8000DFFDC4F30720FFF7DBFDE0B2FFF7D8FD81
:100A900001204949C1F8B002FFF78AFF10BD2DE9D6
:100AA000F05F81460F461646DFF820B14FEA17384F
:100AB000C7F30B0ACAF58054A64200DC344644E072
:100AC0004FEA08314FF480525846FFF74CFF00259B
:100AD00008E00AEB05001BF80000FF2800D003E047
:100AE000681C85B2A542F4DB00BFA54216DA404679
:100AF000FFF7B2FF002507E019F8050005EB0A0132
:100B00000BF80100681C85B2A542F5DB4FEA0831FD
:100B10004FF480525846FFF77CFF04E022463946E6
:100B20004846FFF776FFA64200D10FE008F1010822
:100B30004FF0000AA1442744301B86B2B6F5805F0F
:100B400002DD4FF4805400E03446B9E700BFBDE851
:100B5000F09F10B5FFF7EFFEFFF72AFF00201549C1
:100B60000860C720FFF76CFD01201349C1F8B002EF
:100B7000FFF71EFF10BD10B500200E490860B92018
:100B8000FFF75EFD01200C49C1F8B002032002F01E
:100B900079F910BD10B5002006490860AB20FFF7B9
:100BA0004FFD01200449C1F8B002032002F06AF9A8
:100BB00010BD0000B082404200804042000402406C
:100BC0002000002066653A25780D0A00B0C3012098
:100BD00010B59AB004460121084602F005FE012135
:100BE000084602F04AFE0121480502F0FDFD022000
:100BF0008DF8640000208DF8660002201890032014
:100C00008DF8650018A9AD4802F050FB012211468D
:100C1000AA4802F0D6FB4FF0804003F037FB15A83E
:100C200003F015FC0020ADF85C00ADF856001694FA
:100C3000ADF854008DF85E0015A94FF0804003F028
:100C4000D2FB0121880704F048F810A803F084FDC6
:100C50006020ADF840000020ADF84C000120ADF858
:100C600042000020129010A94FF0804003F089FC50
:100C70000821C80603F0E2FD00214FF0804003F098
:100C80003BFC01229102080504F07EF88C4803F039
:100C900029F901A803F0F1F91820059080050190C9
:100CA0004020049000200C9003200D908548039074
:100CB00000200E904FF48050099080100790002083
:100CC0000A908148029000200F904FF480500890C5
:100CD000002006904FF480300B9001A9784803F073
:100CE000A3F90021764803F0D9F91AB010BD70B508
:100CF00002460B46002116E0002010E003FA00F443
:100D000004F400040CB1462400E0232401EB410567
:100D100000EBC5056B4E46F82540441CE0B2182890
:100D2000ECDB4C1CE1B29142E6DB70BD70B50246D3
:100D30000B46002117E0002011E053F821408440C9
:100D400004F400040CB1462400E0232401EB410527
:100D500000EBC5055B4E46F82540441CE0B2182860
:100D6000EBDB4C1CE1B29142E5DB70BD10B54A21D2
:100D7000534803F0B4F90121514803F08FF90121E0
:100D8000880703F0B9FB51494D4803F0E4F960B11D
:100D900000214B4803F082F94C49494803F0F7F928
:100DA00000214FF0804003F0A7FB10BD10B50446B2
:100DB0004FF47F412046FFF79AFFFFF7D7FF10BDA2
:100DC00010B504464FF47F012046FFF790FFFFF770
:100DD000CDFF10BD10B50446FF212046FFF787FF69
:100DE000FFF7C4FF10BD70B50546002425B1012DE5
:100DF00023D0022D5FD141E000240BE0002040EA27
:100E000004214020FFF773FFFFF7B0FF0A2002F034
:100E100081F8A41CFE2CF1DBFE240BE0002040EA4C
:100E200004214020FFF763FFFFF7A0FF0A2002F034
:100E300071F8A41E002CF1DC3DE000240BE0002042
:100E400040EA04414020FFF752FFFFF78FFF0A20DE
:100E500002F060F8A41CFE2CF1DBFE240BE0002065
:100E600040EA04414020FFF742FFFFF77FFF0A20DE
:100E700002F050F8A41E002CF1DC1CE0002409E074
:100E800021464020FFF733FFFFF770FF0A2002F0F2
:100E900041F8A41CFE2CF3DBFE2409E0214640208F
:100EA000FFF725FFFFF762FF0A2002F033F8A41EC8
:100EB000002CF3DC00BF00BF70BD0000000002404A
:100EC000A0600240B0D30120380000400000202084
:100ED00000B589B00121022002F086FC0121022028
:100EE00002F0CBFC02208DF8200000208DF82200BB
:100EF0003020079000208DF8230003208DF821007A
:100F000007A9514802F0D2F9022204214E4802F00A
:100F100058FA022205214C4802F053FA0020ADF89D
:100F20001400ADF80E004FF6FF7004900020ADF8ED
:100F30000C008DF8160003A9444803F054FA6846E3
:100F400003F05FFE0A20ADF8080069463F4803F051
:100F500021FE00231A4601213C4803F0B8FF01217D
:100F60003A4803F0F5FE01221146384803F0DCFE52
:100F70004FF40041354803F07FFA1D208DF818002A
:100F800001208DF81B008DF8190002208DF81A0041
:100F900006A802F09AF801212C4803F0ADFA09B036
:100FA00000BD10B50121294803F0D5FE012803D169
:100FB0000121264803F0E0FE10BD10B500242348AF
:100FC00003F05EFAA0F5004004B24FF400411F4860
:100FD00003F052FA204610BD10B50024FFF7EDFFD4
:100FE0000446B4F1FF3F07D0012C0BD1184800781C
:100FF000401C1749087006E016480078401C154947
:10100000087000E000BF00BF11480078022806DB2E
:1010100000200F4908700F490870012010BD0D48CD
:101020000078022807DA0A48007801280AD109481E
:101030000078012806D1002005490870054908708C
:101040000220EBE70020E9E7000402400004004032
:1010500022000020230000201CB50121052002F001
:10106000C3FB01208DF8040000208DF806004FF42A
:101070000040009000208DF8070003208DF8050047
:101080006946924802F012F94FF4404000906946D8
:101090008F4802F00BF94FF400418C4802F082F9BE
:1010A0004FF440418A4802F07DF91CBD10B504465A
:1010B0002046FFF7B7FB10BD10B504462012FFF71E
:1010C000B1FBE0B2FFF7AEFB10BD10B504464FF424
:1010D00080417F4802F068F92046FFF7A3FB4FF4F8
:1010E00080417B4802F05EF910BD2DE9F0410746D2
:1010F0000C4615461E462A20FFF7E7FF3846FFF745
:10110000DBFF2846FFF7D8FF2B20FFF7DEFF204646
:10111000FFF7D2FF3046FFF7CFFF2C20FFF7D5FFB8
:10112000BDE8F08110B5FFF714FBFFF795FF4FF412
:10113000614000F0CFF84FF40041644802F034F908
:10114000642001F0E7FE4FF40041604802F02AF904
:10115000642001F0DFFE4FF400415D4802F022F907
:10116000642001F0D7FE1120FFF7AFFF782001F0D7
:10117000D1FE3620FFF7A9FF0020FFF797FF3A20A6
:10118000FFF7A3FF0520FFF791FFB220FFF79DFFB8
:101190000C20FFF78BFF0C20FFF788FF0020FFF7E4
:1011A00085FF3320FFF782FF3320FFF77FFFB72053
:1011B000FFF78BFF3520FFF779FFBB20FFF785FF97
:1011C0003220FFF773FFC220FFF77FFF0120FFF7F8
:1011D0006DFFC320FFF779FF1520FFF767FFC420DD
:1011E000FFF773FF2020FFF761FFC620FFF76DFFB9
:1011F0000F20FFF75BFFD020FFF767FFA420FFF76A
:1012000055FFA120FFF752FFE020FFF75EFFD0203F
:10121000FFF74CFF0820FFF749FF0E20FFF746FFBE
:101220000920FFF743FF0920FFF740FF0520FFF7E4
:101230003DFF3120FFF73AFF3320FFF737FF48200B
:10124000FFF734FF1720FFF731FF1420FFF72EFFC1
:101250001520FFF72BFF3120FFF728FF3420FFF781
:1012600025FFE120FFF731FFD020FFF71FFF082007
:10127000FFF71CFF0E20FFF719FF0920FFF716FFED
:101280000920FFF713FF1520FFF710FF3120FFF7AC
:101290000DFF3320FFF70AFF4820FFF707FF172055
:1012A000FFF704FF1420FFF701FF1520FFF7FEFEF4
:1012B0003120FFF7FBFE3420FFF7F8FE2120FFF777
:1012C00004FF2920FFF701FF10BD000000000240CD
:1012D0000008024010B590B004460121880502F0D4
:1012E00083FA164802F0FEFD05944FF0C0600190AD
:1012F0004020049000200C900D9011480390002095
:101300000E904FF400500990C01007900D480290C5
:1013100000200F904FF400600890002006900A9083
:101320004FF480300B9001A9044802F07DFE0021AB
:10133000024802F0B3FE10B010BD00005864024035
:10134000240000200C3001402DE9F05F074688465C
:1013500015461E46DDF828904FF0010AFA4800684D
:1013600000F4806030B1F849086820F4806000BF64
:10137000086000BFF548A0F80090E81BA6EB080144
:1013800000FB01F4701E83B2681E82B241463846EB
:10139000FFF7ABFE0821EE4802F006F84FF40061BB
:1013A000EC4803F023FF0121EA4803F007FF28E09F
:1013B0004FF6FE70844202D9241A834602E04FF0B1
:1013C000000AA3460021E04802F068FE0022DF493F
:1013D000DD4802F0A1FE1FFA8BF1DB4802F07FFE30
:1013E0000121D94802F05AFE00BF4FF0C051D64843
:1013F00002F0B1FE0028F8D04FF0C051D24802F000
:10140000C6FEBAF1000FD3D10021CF4802F046FE4C
:101410000821CF4801F0C6FF0021CE4803F0E6FEC8
:101420000121CC4803F0CAFEBDE8F09F2DE9F0474A
:1014300006460F4614461D46DDF820A0681E83B2FE
:10144000601E82B239463046FFF74FFEB8460EE0C6
:10145000B14606E05046FFF72FFE09F101001FFAE2
:1014600080F9A145F6DB08F101001FFA80F8A845D4
:10147000EEDBBDE8F0872DE9F047074688461546C4
:101480001E464FF00109B048006800F4806038B98A
:10149000AD49086820F4806040F48060086000BFB7
:1014A000E81BA6EB080100FB01F4701E83B2681E66
:1014B00082B241463846FFF718FE0821A44801F0E1
:1014C00073FF4FF40061A34803F090FE0121A1488F
:1014D00003F074FE28E04FF6FE70844202D9241A0D
:1014E000824602E04FF00009A2460021964802F031
:1014F000D5FD00229849944802F00EFE1FFA8AF1A9
:10150000914802F0ECFD01218F4802F0C7FD00BFB9
:101510004FF0C0518C4802F01EFE0028F8D04FF06A
:10152000C051894802F033FEB9F1000FD3D1002138
:10153000854802F0B3FD0821854801F033FF002102
:10154000844803F053FE0121824803F037FEBDE8D2
:10155000F08770B504460D4616462B4622462946AE
:101560002046FFF7C2FD3046FFF7A6FD70BD2DE90E
:10157000FF4F85B081468A46002003908346079836
:10158000A0EB09050898A0EB0A06CDF80890CDF865
:1015900004A0002D01DD012705E00DB9002702E0C0
:1015A0004FF0FF376D42002E02DD4FF0010806E0DC
:1015B00016B94FF0000802E04FF0FF387642B5420E
:1015C00001DD2C4600E03446002004901EE0019A24
:1015D00091B2029A90B2129AFFF7BBFF0398284487
:1015E0000390B3440398A04205DD0398001B0390C9
:1015F000029838440290A34504DDABEB040B01983C
:10160000404401900498401C80B20490611C0498EE
:101610008842DCDB09B0BDE8F08F2DE9F8430546D0
:101620000E4617469846089C33463A4631462846A9
:101630000094FFF79CFF43462A4631462846009413
:10164000FFF795FF43463A46414628460094FFF788
:101650008EFF43463A46314638460094FFF787FFEF
:10166000BDE8F8832DE9F04706460F4690469946B7
:101670000025444641E07A1B91B2321B90B24A46A3
:10168000FFF767FF7A1B91B2321990B24A46FFF713
:1016900060FF3A1991B2721B90B24A46FFF759FFA8
:1016A0003A1B91B2721B90B24A46FFF752FF7A1969
:1016B00091B2321990B24A46FFF74BFF3A1B91B2F2
:1016C000721990B24A46FFF744FF3A1991B2721963
:1016D00090B24A46FFF73DFF7A1991B2321B90B2A1
:1016E0004A46FFF736FF6D1C05FB05F004FB0401BD
:1016F00008FB08F0814200DD641EA542BBDDBDE8A9
:10170000F0872DE9FF5F0646894692469B460F9C6F
:101710000020039000962046E21704EB5272D2108C
:101720002146E31704EB5373DB10A4EBC3030BB1A7
:10173000012300E000231A44624392B20192052083
:10174000029000257CE00000586402402400002044
:101750000004024000300140B001002005EB85107C
:10176000FA4911F810009AF80010884265D105EB8B
:101770008510F64901EB400040789AF80110884244
:101780005BD109EB0400401E83B23019401E82B2C7
:1017900049463046FFF7A9FC00274BE04FF0000810
:1017A00042E01098F8B905EB8510E84901EB4000DC
:1017B000801CC05D012101FA08F1084018B15846AB
:1017C000FFF77AFC02E00E98FFF776FC0398401CC6
:1017D000C0B20390039890FBF4F104FB1100F8B938
:1017E0000020039023E005EB8510D84901EB400071
:1017F000801CC05D012101FA08F1084020B15A4661
:1018000049463046FFF7A5FE701C86B20098301A94
:10181000A04205D1009E09F101001FFA80F906E0FF
:1018200008F1010000F0FF08B8F1080FB9DB00BFB4
:10183000781CC7B201988742B0DB00BF681C85B234
:10184000029885428ADBBDE8FF9F2DE9FF5F0646CF
:10185000894692469B460F9C0020039000962046A6
:10186000E21704EB5272D2102146E31704EB5373D4
:10187000DB10A4EBC3030BB1012300E000231A44E7
:10188000624392B2019205200290002579E005EBB7
:10189000850000EB4510AE4911F810009AF80010D1
:1018A00088426BD105EB850000EB4510A84901EBA0
:1018B000400040789AF8011088425FD109EB04009B
:1018C000401E83B23019401E82B249463046FFF7AF
:1018D0000CFC00274FE04FF0000846E0109808BBD2
:1018E00005EB850000EB4510994901EB4000801C99
:1018F000C05D012101FA08F1084018B15846FFF710
:10190000DBFB02E00E98FFF7D7FB0398401CC0B248
:101910000390039890FBF4F104FB110008BB002036
:10192000039025E005EB850000EB4510884901EBAD
:101930004000801CC05D012101FA08F1084020B17F
:101940005A4649463046FFF704FE701C86B200989E
:10195000301AA04205D1009E09F101001FFA80F95A
:1019600006E008F1010000F0FF08B8F1080FB5DB50
:1019700000BF781CC7B201988742ACDB00BF681C6F
:1019800085B20298854282DBBDE8FF9F2DE9FF5FAB
:101990000646894692469B460F9C0020039000967F
:1019A0002046E21704EB5272D2102146E31704EBF3
:1019B0005373DB10A4EBC3030BB1012300E000233E
:1019C0001A44624392B2019205200290002571E010
:1019D00005EB05105F4911F810009AF800108842D5
:1019E00065D105EB05105B4901EB400040789AF8A2
:1019F000011088425BD109EB0400401E83B230190C
:101A0000401E82B249463046FFF76FFB00274BE08D
:101A10004FF0000842E01098F8B905EB05104D4969
:101A200001EB4000801CC05D012101FA08F1084073
:101A300018B15846FFF740FB02E00E98FFF73CFB59
:101A40000398401CC0B20390039890FBF4F104FB90
:101A50001100F8B90020039023E005EB05103D4983
:101A600001EB4000801CC05D012101FA08F1084033
:101A700020B15A4649463046FFF76BFD701C86B2CE
:101A80000098301AA04205D1009E09F101001FFA0A
:101A900080F906E008F1010000F0FF08B8F1080F36
:101AA000B9DB00BF781CC7B201988742B0DB00BF2A
:101AB000681C85B2029885428ADBBDE8FF9F2DE94C
:101AC000FF5F0646894692469B460F9C0020039086
:101AD00000962046E21704EB5272D2102146E3171B
:101AE00004EB5373DB10A4EBC3030BB1012300E041
:101AF00000231A44624392B201920520029000250D
:101B000082E005EB850000EBC500134911F81000D9
:101B10009AF80010884274D105EB850000EBC500EF
:101B20000D4901EB400040789AF80110884268D1D5
:101B300009EB0400401E83B23019401E82B24946B0
:101B40003046FFF7D2FA002758E000003A9200082A
:101B5000C89000081E9000089C8F00084FF00008F5
:101B600046E0109808BB05EB850000EBC500FE4978
:101B700001EB4000801CC05D012101FA08F1084022
:101B800018B15846FFF798FA02E00E98FFF794FA5A
:101B90000398401CC0B20390039890FBF4F104FB3F
:101BA000110008BB0020039025E005EB850000EB49
:101BB000C500ED4901EB4000801CC05D012101FA28
:101BC00008F1084020B15A4649463046FFF7C1FCAB
:101BD000701C86B20098301AA04205D1009E09F10F
:101BE00001001FFA80F906E008F1010000F0FF088B
:101BF000B8F1080FB5DB00BF781CC7B20198874267
:101C0000ACDB00BF681C85B202988542FFF679AF55
:101C1000BDE8FF9F2DE9FE4F8046894617469A464C
:101C2000DDE90D460C9D36E00C2C09D153463A46B1
:101C300049464046CDE901460095FFF740FF25E0C3
:101C4000102C09D153463A4649464046CDE9014653
:101C50000095FFF79BFE19E0182C09D153463A4630
:101C600049464046CDE901460095FFF7EEFD0DE0FF
:101C7000202C09D153463A4649464046CDE9014613
:101C80000095FFF73EFD01E0BDE8FE8FBF1C08EBAD
:101C900004001FFA80F838780028C5D100BFF3E7A8
:101CA0002DE9FF5F80468A4617469B460F9D002020
:101CB0000290CDF80080284605EBD071C1F34704AF
:101CC0002046E21704EB5272D2102146E31704EBD0
:101CD0005373DB10A4EBC3030BB1012300E000231B
:101CE0001A446A4392B20192A7F12000C7B20AEBEC
:101CF0000500401E83B208EB0400401E82B251462C
:101D00004046FFF7F2F9002669E00C2D07D107EBFA
:101D10004700964901EB8000805D03901BE0102D89
:101D200005D1934800EB0710805D039013E0182D58
:101D300007D107EB47008F4901EB0010805D03904E
:101D400009E0202D05D18C4800EB8710805D0390C1
:101D500001E0BDE8FF9F4FF000093AE01098C8B9D4
:101D6000012000FA09F00399084018B15846FFF71E
:101D7000A3F902E00E98FFF79FF90298401CC0B249
:101D80000290029890FBF4F104FB1100E8B90020E6
:101D9000029021E0012000FA09F00399084020B1E7
:101DA0005A4651464046FFF7D4FB08F101001FFA9E
:101DB00080F80098A8EB0000A04206D1DDF8008072
:101DC0000AF101001FFA80FA06E009F1010000F0B3
:101DD000FF09B9F1080FC1DB00BF701C86B2019882
:101DE000864292DB00BFB4E72DE9FE4F06460F4660
:101DF00014469846DDE90D5ADDF8309010E0CDE943
:101E0000015ACDF800902278434639463046FFF714
:101E100047FF284605EBD07106EB61018EB2641CCA
:101E200020780028EBD1BDE8FE8F10B502460120D6
:101E300000E050430B1EA1F10104E1B2F9D110BD45
:101E40002DE9FF4F85B0074691461D46DDE913A6F3
:101E500000200490304606EBD071C1F3470B0024FC
:101E600034E0281B401EC1B20A20FFF7DEFFB9FB99
:101E7000F0F00A21B0FBF1F201FB12080498A0B9BE
:101E8000681EA04211DDB8F1000F0CD1002004FB48
:101E90000B71CDE900A6029088B22022129B069910
:101EA000FFF7FEFE10E001200490002008F1300151
:101EB000CAB204FB0B71CDE900A6029088B2129B56
:101EC0000699FFF7EDFE00BF601CC4B2AC42C8DB50
:101ED00009B0BDE8F08F2DE9FF4F2DED020B2DED80
:101EE000028B83B00746B0EE408A1446DDE91486C3
:101EF000304606EBD071C1F3470A9FED200A28EE69
:101F0000000ABCEEC00A10EE100A1FFA80FB002582
:101F10003DE0601B401EC1B20A20FFF786FFBBFBFD
:101F2000F0F00A21B0FBF1F201FB1209A01EA84259
:101F300010D10020A11E01FB0A71CDE9008602909C
:101F400088B22E220A9B0899FFF7AAFE681CC5B228
:101F5000601CC4B2002009F13001CAB205FB0A714D
:101F6000CDE9008602900BE09C8F0008A85B00087A
:101F70001C6000080C660008DC7700080000C842FE
:101F800088B20A9B0899FFF78BFE681CC5B2A54270
:101F9000BFDB03B0BDEC028B06B0BDE8F08F2DE9CE
:101FA000F05F0746884615461E46DDF82890002457
:101FB00008EB0600401E83B27819401E82B24146EB
:101FC0003846FFF792F8A24618E04FF0000B0FE0FA
:101FD00019F81400FFF76AF8012101EB440119F820
:101FE0000100FFF763F8641C0BF101001FFA80FB8E
:101FF000B345EDDB0AF101001FFA80FAAA45E4DBE4
:10200000BDE8F09F10B588B004460121084601F0F4
:1020100045FC0020ADF81C00ADF81600601E0690CF
:10202000A720ADF8140000208DF81E0005A9774800
:1020300002F0D9F9684602F08FFB6020ADF800008D
:102040000020ADF80C000120ADF80200204604EBA2
:10205000D0714910029169466C4802F059FA012189
:102060006A4802F03AFE0021684802F045FA08B0DA
:1020700010BD1CB50121084601F0B6FB02208DF809
:10208000040000208DF806004FF4807000900220BC
:102090008DF8070003208DF8050069465C4801F0C3
:1020A00005F9012208215A4801F08BF94FF4B97063
:1020B000FFF7A8FF012057490870622088721CBDF5
:1020C000014609B900207047DFED530AB0EE600AFF
:1020D00000EE901AF8EE600A9FED501AC1EE201A39
:1020E000B0EE610AFCEEC00A10EE900A80B2EAE798
:1020F00070B505460021454802F0FEF948480560E4
:10210000002401E0601C84B24548006810F82400F7
:102110003D28F7D13F48C48000203E490881012076
:10212000887070BD10B53B48407800284CD03948C5
:102130000078002848D0374800893649C988884245
:1021400021DA34490989364A126812F82110354AD1
:1021500032F81100FFF7B4FF2C49C8620846C06A84
:1021600080B22C49897AC1F1640190FBF1F02749D2
:10217000486328488088401E2649888001212348DA
:1021800002F0BAF90BE00021204802F0B5F9002076
:10219000204948704FF480711D4801F005F91D4831
:1021A00080884FF6FF71884217DB1A480089401C6F
:1021B00018490881084600891949096801EB80001F
:1021C00040881449888008E00021104802F094F902
:1021D0004FF480710E4801F0E7F80E48807898B10E
:1021E0000C48007880B100200A49887008460089B0
:1021F00050B901204870084600890949096801EB77
:10220000800040880349888010BD00000000014024
:1022100000000240D8D401200000000000247449CE
:1022200028000020C49400087FB505460C46012113
:10223000042001F022FB0020ADF80C00ADF80600F0
:102240000295ADF804408DF80E0001A93A4802F05D
:10225000CAF80121384802F07BFD012211463648B8
:1022600002F062FD1E208DF8000001208DF80300B1
:1022700000208DF8010002208DF80200684600F071
:1022800024FF01212C4802F037F97FBD10B500244E
:102290002A48006803F072FA03F066FA4FF47A7184
:1022A00090FBF1F201FB1204204610BD70B504460C
:1022B0000025204603F062FA03F056FA4FF47A71D3
:1022C00090FBF1F201FB1205284670BD10B501210B
:1022D000194802F040FD01282CD10121164802F0D6
:1022E0004BFD16480068401C14490860FFF71AFFB0
:1022F00013480078142804DBFEF716F90020104973
:1023000008700F480078401C0D4908700D4800887F
:10231000B0F57A7F09DB0C4801780CA003F0C4FA11
:102320000020084908800849087006480088401CB9
:102330000449088010BD0000000800406001002032
:102340006401002066010020680100206F765F664E
:1023500072616D65203D2025640D0A0010B50121D4
:10236000914801F09BFE012003F09CF810BD10B5D0
:10237000002003F097F800BF8C48006800F00100CF
:102380000028F9D10021884801F088FE10BD10B561
:10239000012003F0C2F8012819D1FFF7E8FFF0236C
:1023A0001A4600210846FFF766F8012003F0C1F83D
:1023B0007F48006808B9012000E000207C490860DF
:1023C0007C480078401C7B490870FFF7C7FF10BDB0
:1023D000F0B58FB004460D4616461F46012188050C
:1023E00001F002FA704801F07DFD00BF6E4801F077
:1023F000A2FE0028FAD14FF0007000906B48283000
:1024000001900294002003900495059006974FF4E4
:102410008050079008960011099040020A9004200D
:102420000B9003200C9000200D900E9069465E48A2
:1024300001F0FAFD0FB0F0BD0EB501210F2001F043
:10244000D3F90121084601F0E0F950200190022063
:102450008DF8080000208DF80A0003208DF809008F
:1024600001208DF80B0001A9534800F01FFF4FF425
:102470007070019001A9514800F018FF4FF43C60C2
:10248000019001A94E4800F011FF0D2204214A4895
:1024900000F097FF0D220621474800F092FF0D2221
:1024A0000721464800F08DFF0D220621444800F028
:1024B00088FF0D220721424800F083FF0D220821EA
:1024C0003F4800F07EFF0D2209213D4800F079FFD2
:1024D0000D220B213A4800F074FF0D2206213748E7
:1024E00000F06FFF0D220821344800F06AFF0D2232
:1024F0000921324800F065FF02F05AFF00203149FF
:1025000008804881888108812020888000204880B8
:10251000C880084602F058FF0121084602F0D4FFA7
:10252000012002F0B0FF4E208DF8000000208DF851
:1025300001008DF8020001208DF80300684600F0CC
:10254000C4FD0EBD2DE9F04106460F4614461D465A
:10255000FFF70DFF2946204600F064FA01211248DA
:1025600001F09CFD012002F09DFFBDE8F08170B5F7
:1025700004460E46154602F01BFF00201149088054
:1025800048818881B00108816001888000204880EE
:10259000E801C880084602F017FF012002F082FF20
:1025A000012002F070FF70BD286402400000055059
:1025B000B4024142680100200000024000040240D1
:1025C00000080240E4D401207CB5002501210C2044
:1025D00001F00AF90420009001208DF80400002089
:1025E0008DF8060002208DF8050001208DF8070007
:1025F0006946FC4800F05AFE4FF48060009069463E
:10260000F94800F053FE0020F84908600A2000F065
:1026100081FC0020F649C1F8A8020A2000F07AFCEB
:102620000120F449086000F0C7FA0121FF2000F002
:10263000C2FB8021122000F0BEFB322000F06AFCB9
:102640001C2000F0D7FB04464FF6FF7000EA04247C
:102650001D2000F0CFFB044347F6A270844205D052
:102660002146E5A003F020F901207CBD0A2000F0FE
:10267000C1FB04464FF6FF7000EA04240B2000F073
:10268000B9FB044342F24260844203D02146DDA0FC
:1026900003F00AF900250AE0DD4A02EB4502517811
:1026A000DB4A12F8150000F086FB681C85B2B12DDC
:1026B000F2D30020D9E710B5002400BF0AE0D54AC4
:1026C00002EB44025178D34A12F8140000F073FB75
:1026D000601C84B2082CF2D300240AE0CE4A02EB3C
:1026E00044025178CC4A12F8140000F064FB601CDC
:1026F00084B2072CF2D310BD10B5002400BF0AE04D
:10270000C64A02EB44025178C44A12F8140000F0A1
:1027100052FB601C84B20E2CF2D310BD70B505467E
:10272000BF4800EBC506002409E0012202EB440289
:10273000B15C16F8140000F03EFB601CC4B2042C1F
:10274000F3DB70BD2DE9F04104465E254126542798
:1027500034B1022C0ED0032C10D0042C16D111E071
:102760000021FF2000F027FB1021C72000F023FBF1
:10277000BDE8F081652541264F2707E05225412617
:10278000662703E042253F26712700BF00BF0021D6
:10279000FF2000F010FB4021C72000F00CFB294671
:1027A000CC2000F008FB3146CD2000F004FB394678
:1027B000CE2000F000FB00BFDAE770B50446A01C95
:1027C000082141EA0010C5B20021FF2000F0F3FA11
:1027D00000217C2000F0EFFA02217D2000F0EBFACE
:1027E00003217C2000F0E7FA29467D2000F0E3FA7F
:1027F00029467D2000F0DFFA70BD10B504460021A7
:10280000FF2000F0D8FA00217C2000F0D4FA042147
:102810007D2000F0D0FA09217C2000F0CCFA2007BE
:10282000010E7D2000F0C7FA00217D2000F0C3FAE0
:1028300010BD70B504462025202634B1012C07D0E8
:10284000032C08D0042C0CD108E01825342608E00D
:102850001C252A2605E02425162602E028250C261C
:1028600000BF00BF0021FF2000F0A5FA00217C205E
:1028700000F0A1FA04217D2000F09DFA07217C20C0
:1028800000F099FA20217D2000F095FA29467D205C
:1028900000F091FA31467D2000F08DFA06217D206E
:1028A00000F089FA70BD2DE9F0410446002580262C
:1028B0008027072C19D2DFE804F0180406080C1052
:1028C0001400402511E018250FE018254026C027E8
:1028D0000BE018254026402707E01825A0264027B2
:1028E00003E018254026A62700BF00BF0021FF20D7
:1028F00000F061FA00217C2000F05DFA29467D207D
:1029000000F059FA05217C2000F055FA31467D206F
:1029100000F051FA39467D2000F04DFABDE8F08113
:1029200070B505460121FF2000F045FA122000F0A5
:1029300061FA044624F002040DB144F00204214679
:10294000122000F038FA70BD2DE9F04705460E461A
:1029500017469846384607EBD07105EB61011FFA20
:1029600081F9404608EBD07106EB61011FFA81FA4C
:102970000121FF2000F01FFA032000F03BFA04467B
:1029800004F0F0040AF00301304661F39F000443B1
:102990002146032000F00FFAC6F38701192000F04A
:1029A0000AFACAF387011A2000F005FA322000F073
:1029B00021FA044604F0C00409F00701284661F337
:1029C000DF0004432146322000F0F5F9C5F3C701CA
:1029D000172000F0F0F9C9F3C701182000F0EBF957
:1029E000BDE8F087000C02400008024088824142A6
:1029F00000004142A80241424D49443A25640D0A73
:102A0000000000004849443A25640D0A0000000017
:102A1000A49600083098000806980008149800084A
:102A2000409800082DE9F04104460D46E11704EBFB
:102A300091718910A4EB810111B10120BDE8F081F1
:102A4000E91705EB91718910A5EB810109B102200D
:102A5000F4E72046E11704EB9171C1F38F07284694
:102A6000E91705EB9171C1F38F060021FF2000F0FB
:102A7000A2F90421E02000F09EF9F9B25A2000F0FA
:102A80009AF9F1B25B2000F096F9C7F3012804200F
:102A900000EAA61040EA080841465C2000F08BF9E5
:102AA0000021E02000F087F90020C7E72DE9F0477A
:102AB0008046894614461D46E11704EB9171891042
:102AC000A4EB810111B10120BDE8F087E91705EB06
:102AD00091718910A5EB810109B10220F4E720462C
:102AE000E11704EB9171C1F38F062846E91705EB56
:102AF0009171C1F38F0A0021FF2000F05CF90421DD
:102B0000E02000F058F9F1B2512000F054F90AF039
:102B1000FF01522000F04FF908F0FF01532000F0B0
:102B20004AF909F0FF01542000F045F9802000EA3D
:102B30006A07702000EA29100743082000EA66109F
:102B40000743C8F3022007433946552000F033F904
:102B5000802000EAA601572000F02DF90021E02096
:102B600000F029F90020AFE770B504460D460021BA
:102B7000FF2000F020F90421E02000F01CF9C4F34C
:102B8000C701C02000F017F9C5F3C701C12000F04C
:102B900012F96007860E05F007000643802000EA60
:102BA0002410064331468C2000F005F90021E02076
:102BB00000F001F9002070BD1CB50121022000F0D9
:102BC00013FE012000908DF8040000208DF806000F
:102BD00003208DF8050001208DF80700694699480B
:102BE00000F064FB0220009000208DF8040001201A
:102BF0008DF8060003208DF8050001208DF80700F0
:102C00006946904800F052FB03218E4800F0CAFB51
:102C10008C48006820F00C008A490860084600686B
:102C200040F0040008601CBD10B501208649086012
:102C30008649C1F88002322000F024F90020824940
:102C40000860322000F01EF900208049C1F880029F
:102C500010BD10B500207C490860322000F012F948
:102C600001207A49C1F88002322000F00BF90120DE
:102C700075490860322000F005F910BD10B532200A
:102C800000F000F90120704908607049C1F8800225
:102C9000322000F0F7F800206B49091F086032204D
:102CA00000F0F0F800206949C1F88402322000F0F9
:102CB000E9F810BD70B5044600261BE004F0800062
:102CC00018B101206049086002E000205E490860F8
:102CD0006006040E322000F0D5F801205A49091F81
:102CE0000860322000F0CEF800205849C1F8800278
:102CF000701CC6B2082EE1DB5248006820F00C00C0
:102D000050490860084600680860322000F0BAF8B0
:102D100001204D49091F0860322000F0B3F84B48EC
:102D2000D0F8040208B1012500E000250020464942
:102D3000091F08604348006820F00C004149086002
:102D40000846006840F004000860284670BD70B571
:102D500000243C48006820F00C003A49086008460E
:102D600000680860082517E0322000F08BF8012089
:102D70003549091F08606006040E3448D0F8040283
:102D800008B1601CC4B2322000F07CF800202E494B
:102D9000091F0860681EC5B2002DE5DC29480068DF
:102DA00020F00C00274908600846006840F0040045
:102DB0000860204670BD70B505460C460026FFF73A
:102DC00033FF6020FFF776FF00B10126642000F09A
:102DD00059F82846FFF76EFF00B10126642000F085
:102DE00051F82046FFF766FF00B10126FFF731FFDB
:102DF000304670BD70B504460025FFF715FF602012
:102E0000FFF758FF642000F03DF82046FFF752FF1F
:102E1000642000F037F8FFF71CFF642000F032F860
:102E2000FFF702FF6120FFF745FF642000F02AF85A
:102E3000FFF78DFF0546FFF721FFFFF70AFF284642
:102E400070BD000000040240848240420080404285
:102E500010B504466FF0040000F084F9E11704EBAC
:102E60005171C1F3C701394A11701046007800EB67
:102E70004001C1EBC0104FF6FF7101EAC0003449B8
:102E8000088010BD0146314A12784A434FF0E023D2
:102E90005A6100229A611A46126942F001021A61CF
:102EA00000BF4FF0E022106900F001021AB100F4F7
:102EB0008032002AF5D04FF0E022126922F00102A0
:102EC0004FF0E0231A6100229A6170470146204AC0
:102ED00012884A434FF0E0235A6100229A611A4651
:102EE000126942F001021A6100BF4FF0E02210693E
:102EF00000F001021AB100F48032002AF5D04FF040
:102F0000E022126922F001024FF0E0231A61002250
:102F10009A61704770B504464FF4077094FBF0F067
:102F2000C6B24FF4077094FBF0F100FB114085B27C
:102F300005E04FF40770FFF7C9FF701EC6B2002E00
:102F4000F7D115B12846FFF7C1FF70BD6A01002017
:102F50006C01002000BF704700BF4C4A128802F08D
:102F60004002002AF9D0C2B2484B9A80704710B58F
:102F700088B004460121084600F036FC01211020EB
:102F800000F08CFC07220921414800F01AFA0722C0
:102F90000A213F4800F015FA4FF4C0600690022065
:102FA0008DF81C008DF81D0000208DF81E000120FA
:102FB0008DF81F0006A9364800F078F90294002029
:102FC000ADF80C00ADF80E00ADF81000ADF814002F
:102FD0000C20ADF8120002A92C4800F0C0FD012120
:102FE0002A4800F044FE012240F22551274800F013
:102FF000F4FE25208DF8040003208DF805008DF8DF
:10300000060001208DF8070001A800F05EF808B066
:1030100010BD10B540F225511C4800F019FF10B347
:103020001A4800F053FEC4B21A48008800F4004069
:10303000C8B91848008800F4804060B10A2C03D059
:1030400000201449088020E01248008840F4004025
:103050001049088019E00D2C06D10E48008840F474
:1030600080400C49088010E00A480088C0F30D0039
:1030700009490C5407480088401C06490880084646
:103080000088C72801DD0020088010BD0010014025
:103090000000024074010020F2D40120064880475D
:1030A00006480047FEE7FEE7FEE7FEE7FEE7FEE72D
:1030B000FEE7FEE7FEE7FEE745030008890100089A
:1030C00032490143324A1160704770B50021002334
:1030D0000F22C4781CB32E4C246804F4E064C4F5B9
:1030E000E064C4F30721C1F10404E3B20A41447867
:1030F0009C40E1B28478144021430C07210E254CFA
:1031000005786155047804F01F050124AC4005786A
:103110006D11AD0005F1E025C5F8004109E0047826
:1031200004F01F050124AC401B4D0678761145F8CC
:10313000264070BD194A0A400243154B1B1F1A60F6
:10314000704739B1124A121D12680243104B1B1D01
:103150001A6006E00E4A121D126882430C4B1B1DBA
:103160001A607047042808D14FF0E021096941F046
:1031700004014FF0E022116107E04FF0E0210969FE
:1031800021F004014FF0E022116170470000FA05C0
:103190000CED00E000E400E080E100E080FFFF1FB4
:1031A00010B504469848844208D10121084600F031
:1031B00086FB0021012000F082FB76E093488442E8
:1031C00008D10121022000F07AFB0021022000F04A
:1031D00076FB6AE08E48844208D10121042000F089
:1031E0006EFB0021042000F06AFB5EE08948844207
:1031F00008D10121082000F062FB0021082000F026
:103200005EFB52E08448844208D10121102000F086
:1032100056FB0021102000F052FB46E07F4884421C
:1032200008D10121202000F04AFB0021202000F0DD
:1032300046FB3AE07A48844208D10121402000F060
:103240003EFB0021402000F03AFB2EE0754884420E
:1032500008D10121802000F032FB0021802000F005
:103260002EFB22E07048844208D10121801500F035
:1032700026FB0021A01500F022FB16E06B488442DB
:1032800008D10121401500F01AFB0021601500F063
:1032900016FB0AE06648844207D10121001500F0C0
:1032A0000EFB0021201500F00AFB10BDF0B50A4608
:1032B00000210023002400BF3DE0012505FA01F3B1
:1032C000156805EA03049C4234D105684F000326C3
:1032D000BE40B543056015794E00B54006683543DC
:1032E00005601579012D02D01579022D16D185685A
:1032F0004F000326BE40B543856055794E00B5406A
:10330000866835438560456801268E40B543456033
:10331000456896798E40B6B235434560C5684F0022
:103320000326BE40B543C560D5794E00B540C6689A
:103330003543C560491C1029BFD3F0BD4FF6FF715E
:1033400001600021017141718171C171704708B53F
:103350004FF480320092009A0A430092009AC261B0
:10336000C161009AC261C2690092C269009208BD3F
:103370000246002013690B400BB1012000E0002041
:1033800070470146086980B27047024600205369C1
:103390000B400BB1012000E0002070470146486956
:1033A00080B2704701837047418370470AB101833F
:1033B00000E0418370474161704742694A40426181
:1033C0007047F0B5002300244D07ED0E02FA05F317
:1033D000CE1000F1200555F826504E07F70E0F26A7
:1033E000BE40B543CF1000F1200646F82750CE105E
:1033F00000F1200555F8265045EA0304CE1000F1EF
:10340000200545F82640F0BD0000024000040240BF
:1034100000080240000C024000100240001402406C
:1034200000180240001C024000200240002402401C
:1034300000280240F948006840F00100F7490860A0
:103440000020F64908310860F4480068F449084053
:10345000F2490860F348091D0860F348EF498431D8
:103460000860F0481038091D0860EC48006820F436
:103470008020EA4908600020E8490C310860E749EB
:103480008C31086070470021E44A921C117011468B
:103490000870704710B501460022002300204A1131
:1034A000012A02D1DD4C236808E0022A03D1DB4C5B
:1034B0007034236802E0D94C7434236801F01F0291
:1034C000012494401C400CB1012000E0002010BDFC
:1034D00038B5002000900024002500BF3120FFF700
:1034E000D9FF05460098401C00900098B0F5A04F09
:1034F00001D0002DF2D03120FFF7CCFF08B101241C
:1035000000E00024204638BD01460020C34A106870
:1035100020F0F80040EAC10010607047C34908601D
:1035200070470021BD4A703211701170012802D01D
:1035300004280AD104E00121B84A7032117005E074
:103540000521B64A7032117000E000BF00BF70471D
:10355000B7490860704770B5049C41EA821501269E
:10356000C6EB530645EA0645054345EA0465AB4EFE
:10357000361D356070BDAD4908667047820142EA6C
:103580000172A64B84331A607047A8498866704759
:1035900010B5830143EA016343EA02739F4C883408
:1035A000236010BDA14908677047A049C8647047EF
:1035B00002460020994B0833186820F0EC6042EA7C
:1035C00001031843954B08331860704702460020EA
:1035D000924B0833186820F0784042EA0103184300
:1035E0008E4B083318607047014600208B4A083222
:1035F000106820F0030008431060704787480830C7
:10360000006800F00C00704701460020834A083231
:10361000106820F0F0000843106070470146002059
:103620007E4A0832106820F4E0500843106070476A
:1036300001460020794A0832106820F4604040EAD0
:10364000C10010607047F0B500210022002402255F
:1036500000260223714F08373F6807F00C0121B1A3
:10366000042905D0082937D105E0724F076036E0FC
:10367000714F076033E0694F3F1D3F68C7F38056C5
:10368000664F3F1D3F6807F03F036EB16A4FB7FBBF
:10369000F3F7DFF888C10CF1040CDCF800C0CCF3C0
:1036A000881C07FB0CF40CE0624FB7FBF3F7DFF864
:1036B0006CC10CF1040CDCF800C0CCF3881C07FBD7
:1036C0000CF4564F3F1D3F68C7F301477F1C7D0038
:1036D000B4FBF5F7076002E0564F076000BF00BF7C
:1036E0004E4F08373F6807F0F0010909534F7A5CE5
:1036F0000768D7404760494F08373F6807F4E051F3
:10370000890A4E4F7A5C4768D7408760434F083735
:103710003F6807F46041490B484F7A5C4768D740DF
:10372000C760F0BD002100F44072B2F5407F0AD1BD
:103730003A4A0832116821F4F811414A0240114313
:10374000364A08321160354A70321268C0F30B03F2
:103750001A43324B70331A60704735494439086058
:1037600070473349403908607047364908607047F0
:1037700001460020294A8C32106820F01F004A1EA2
:103780001043264A8C321060704701460020234ABD
:103790008C32106820F4F8504A1E40EA02201F4A7A
:1037A0008C3210607047014600201C4A8C32106831
:1037B00020F4401008431060704701460020174A6B
:1037C0008C32106820F440000843106070470146B6
:1037D0000020124A8C32106820F4403008431060F8
:1037E000704719490860704739B10C4A3032126885
:1037F00002430A4B30331A6006E0084A303212683E
:103800008243064B30331A607047F9B1034A3432B1
:1038100012680243014B34331A601CE00038024046
:10382000FFFFF6EA1030002400300020000047427D
:10383000800E47420024F40000127A007601002036
:10384000FFFCFF0F5C014742E01147428F4A1268BC
:1038500082438E4B1A60704739B18C4A121D126830
:1038600002438A4B1B1D1A6006E0884A121D12682B
:103870008243864B1B1D1A60704739B1834A0C3254
:1038800012680243814B0C331A6006E07F4A0C3207
:10389000126882437D4B0C331A60704739B17B4A02
:1038A000103212680243794B10331A6006E0774AEF
:1038B000103212688243754B10331A60704739B169
:1038C000724A243A12680243704B243B1A6006E0A5
:1038D0006E4A243A126882436C4B243B1A6070474C
:1038E00039B16A4A203A12680243684B203B1A6099
:1038F00006E0664A203A12688243644B203B1A6015
:10390000704739B1614A1C3A126802435F4B1C3B55
:103910001A6006E05D4A1C3A126882435B4B1C3B0E
:103920001A60704739B1594A143A12680243574B2A
:10393000143B1A6006E0554A143A12688243534B0E
:10394000143B1A60704739B1504A103A126802436A
:103950004E4B103B1A6006E04C4A103A1268824304
:103960004A4B103B1A60704739B1484A1C32126802
:103970000243464B1C331A6006E0444A1C3212686C
:103980008243424B1C331A60704739B13F4A2032A0
:10399000126802433D4B20331A6006E03B4A203256
:1039A00012688243394B20331A60704739B1374A65
:1039B000243212680243354B24331A6006E0334A3E
:1039C000243212688243314B24331A60704739B174
:1039D0002E4A2C32126802432C4B2C331A6006E01C
:1039E0002A4A2C3212688243284B2C331A607047C3
:1039F00039B1264A303212680243244B30331A6000
:103A000006E0224A303212688243204B30331A607B
:103A10007047012808D11D493C31096841F008016F
:103A20001A4A3C32116007E018493C31096821F01C
:103A30000801164A3C321160704739B1134A273ADF
:103A400012780243114B273B1A7006E00F4A273ABF
:103A5000127882430D4B273B1A7070470B48403059
:103A6000006840F0807009494031086070470146A5
:103A70000020064A283A12680A400AB1012000E0F4
:103A800000207047014926390870704734380240D9
:103A900010B50446FA48844208D101211020FFF7EE
:103AA00052FF00211020FFF74EFF57E0F5488442F7
:103AB00009D101214804FFF735FF00214FF4003000
:103AC000FFF730FF4AE0F048844209D10121880421
:103AD000FFF728FF00214FF48020FFF723FF3DE090
:103AE000EA48844209D10121C804FFF71BFF0021E5
:103AF0004FF40020FFF716FF30E0E548844209D17B
:103B000001210805FFF70EFF00214FF48010FFF799
:103B100009FF23E0DF48844208D101212020FFF77C
:103B200012FF00212020FFF70EFF17E0DA48844241
:103B300009D101218807FFF7F5FE00214FF08040F1
:103B4000FFF7F0FE0AE0D548844207D10121400585
:103B5000FFF7E8FE00216005FFF7E4FE10BD2DE948
:103B6000FF4705460E460024A14600BFA046B08987
:103B700000B100BF2C8A24F44054F08804432C8206
:103B8000AC8941F20C608443B08831890843718963
:103B900008430443AC81AC8A24F44074B0890443E4
:103BA000AC826846FFF74FFDB548854202D0B94860
:103BB000854202D1DDF80C9001E0DDF80890A8897B
:103BC00000F4004040B109EBC90000EB0910316876
:103BD0004900B0FBF1F707E009EBC90000EB091061
:103BE00031688900B0FBF1F76420B7FBF0F0040105
:103BF0002009642101FB1078A88900F4004040B13D
:103C0000322000EBC800B0FBF1F000F007000443E5
:103C100008E0322000EB08106421B0FBF1F000F066
:103C20000F0004432C81BDE8FF874FF4165101605B
:103C300000218180C18001810C214181002181818D
:103C4000704710B502460020108A20F470600B887F
:103C50004C8823438C882343CC8823431843108209
:103C600010BD0021018041808180C180704721B159
:103C7000828942F40052828104E082894DF6FF730A
:103C80001A4082817047028B02F47F420283028BCA
:103C90000A430283704721B1828942F40042828143
:103CA00003E08289C2F30E028281704721B1828AC9
:103CB00042F40062828204E0828A4FF2FF731A406B
:103CC00082827047C1F3080282807047014688886B
:103CD000C0F308007047028A4FF6F0731A40028260
:103CE000028A0A430282704721B1828942F00202AD
:103CF000828104E082894FF6FD731A408281704709
:103D000082894FF2FF731A40828182890A4382813D
:103D10007047028A4FF6DF731A400282028A0A4312
:103D20000282704721B1028A42F48042028204E09A
:103D3000028A4BF6FF731A4002827047818941F074
:103D400001018181704721B1828A42F0080282829A
:103D500004E0828A4FF6F7731A4082827047028B22
:103D6000D2B20283028B42EA01220283704721B160
:103D7000828A42F02002828204E0828A4FF6DF7358
:103D80001A408282704721B1828A42F010028282F8
:103D900004E0828A4FF6EF731A4082827047828A6B
:103DA0004FF6FB731A408282828A0A4382827047EE
:103DB00021B1828A42F00202828204E0828A4FF6B6
:103DC000FD731A40828270471AB1838A0B43838243
:103DD00002E0838A8B4383827047F0B50346002458
:103DE00000260025002040F66A17B94200D100BF26
:103DF0001846C1F3421401F01F06012707FA06F521
:103E0000012C01D10C3004E0022C01D1103000E073
:103E100014301AB107682F43076002E00768AF4308
:103E20000760F0BD02460020B1F5007F00D100BF61
:103E300013880B400BB1012000E00020704701F413
:103E40000072B2F5007F00D100BFCA430280704704
:103E500070B50246002400230025002040F66A16B3
:103E6000B14200D100BFC1F3421501F01F0301268A
:103E700006FA03F3012D13D19689334017E00000B1
:103E8000001001400044004000480040004C004049
:103E9000005000400014014000780040007C0040C9
:103EA000022D02D1168A334001E0968A33400C126B
:103EB000012606FA04F41688344013B10CB101202F
:103EC00000E0002070BD10B50022002340F66A1407
:103ED000A14200D100BF0A1201249440A3B2DC43E6
:103EE000048010BD016821F0010101600021016022
:103EF00041608160C160016121214161DB498842EB
:103F000004D13D21D94A103A91608CE0D74918314B
:103F1000884205D14FF47461D44A103A916082E02E
:103F2000D2493031884205D14FF47411CF4A103A4A
:103F3000916078E0CD494831884205D14FF07461F5
:103F4000CA4A103A91606EE0C8496031884204D193
:103F5000C749C64A103AD16065E0C4497831884201
:103F600004D1C449C14A103AD1605CE0BF499031E4
:103F7000884204D1C049BD4A103AD16053E0BB49E0
:103F8000A831884205D14FF03D51B84A103AD1606E
:103F900049E0BA49884204D13D21B84A083A116043
:103FA00041E0B6491831884205D14FF47461B34AF3
:103FB000083A116037E0B1493031884205D14FF4F9
:103FC0007411AE4A083A11602DE0AC49483188427C
:103FD00005D14FF07461A94A083A116023E0A7495E
:103FE0006031884204D1A249A44A121F11601AE02C
:103FF000A2497831884204D19E49A04A121F11601B
:1040000011E09E499031884204D19B499B4A121F7E
:10401000116008E09949A831884204D14FF03D5120
:10402000964A121F1160704710B500220268944B27
:104030001A40CC680B6823434C6923438C692343A3
:10404000CC6923430C6A23434C6A23438C6A234381
:104050004C6B23438C6B23431A430260426922F06A
:104060000702D1E90B3423431A4342610B694360D1
:104070004B6883608B68C36010BD002101604160A4
:104080008160C160016141618161C1610162416220
:104090008162C162016341638163704721B102683B
:1040A00042F00102026003E0026822F001020260B5
:1040B000704721B1026842F40042026003E00268E6
:1040C00022F400420260704721B1026842F02002EF
:1040D000026003E0026822F0200202607047416043
:1040E00070470146486880B2704722B1036843F4C4
:1040F0000023036003E0036823F4002303600161ED
:10410000704721B1026842F48022026003E0026835
:1041100022F48022026070470AB1016100E0C160B0
:104120007047014600200A6802F400220AB101200B
:1041300000E000207047014600200A6802F00102FA
:104140000AB1012000E000207047014600204A69C2
:1041500002F03800704730B503460A4600200024BC
:10416000464DAB4202D24149103901E04349103972
:1041700002F000550DB14C6800E00C68414D2C4038
:1041800004EA02050DB1012000E0002030BD024626
:104190003A4B9A4202D23548103801E0374810387D
:1041A00001F000531BB1374B0B40C36002E0354BAD
:1041B0000B408360704710B501F080034BB122B112
:1041C000436943F08003436103E0436923F08003C4
:1041D000436180290BD02AB1036801F01E042343F8
:1041E000036004E0036801F01E04A343036010BDF4
:1041F00070B50246002000240025204EB24202D2B3
:104200001A4B103B01E01D4B103B1F4E0E4036B1C8
:104210001E2606EAD124166806EA040502E056695D
:1042200006F0800501F000560EB15C6800E01C68E5
:10423000144E344004EA010616B10DB1012000E02D
:10424000002070BD02460D4B9A4202D2074810383A
:1042500001E00A48103801F000531BB1094B0B4034
:10426000C36002E0074B0B40836070471060024060
:104270003D000020400F002000003D20106402405F
:104280003F801CF07D0F7D0F3C0F3C0F10B50446A6
:10429000FE48844208D101210846FFF754FB002163
:1042A0000120FFF750FB9DE0B4F1804F08D10121C0
:1042B0000846FFF737FB00210120FFF733FB91E0B1
:1042C000F348844208D101210220FFF72BFB002193
:1042D0000220FFF727FB85E0EE48844208D1012148
:1042E0000420FFF71FFB00210420FFF71BFB79E0F0
:1042F000E948844208D101210820FFF713FB00217F
:104300000820FFF70FFB6DE0E448844208D101214B
:104310001020FFF707FB00211020FFF703FB61E0EF
:10432000DF48844208D101212020FFF7FBFA002159
:104330002020FFF7F7FA55E0DA48844208D101213E
:104340000220FFF700FB00210220FFF7FCFA49E002
:10435000D548844209D101210804FFF7F4FA00216D
:104360004FF48030FFF7EFFA3CE0D048844209D1A7
:1043700001214804FFF7E7FA00214FF40030FFF76E
:10438000E2FA2FE0CA48844209D101218804FFF7EC
:10439000DAFA00214FF48020FFF7D5FA22E0C54871
:1043A000844208D101214020FFF7BCFA00214020BF
:1043B000FFF7B8FA16E0C048844208D101218020F6
:1043C000FFF7B0FA00218020FFF7ACFA0AE0BB4803
:1043D000844207D101218015FFF7A4FA0021A0151E
:1043E000FFF7A0FA10BD00220288A84B98420ED019
:1043F000AC4B98420BD0B0F1804F08D0A44B984200
:1044000005D0A44B984202D0A34B984204D14FF65A
:104410008F731A404B881A43A04B984207D0A04B89
:10442000984204D04FF6FF431A400B891A4302808A
:104430004B68C3620B880385944B984202D0994B1A
:10444000984201D18B7A03860123838270474FF013
:10445000FF314160002101800181418081727047FC
:104460000185828270470A46002101884FF68F73CA
:10447000194011430180704741627047C162704723
:104480000146486A70470146088D704721B102888D
:1044900042F00202028004E002884FF6FD731A40E7
:1044A0000280704721B1028842F00402028004E0D9
:1044B00002884FF6FB731A400280704721B10288D0
:1044C00042F08002028004E002884FF67F731A40B7
:1044D0000280704702884FF6F7731A400280028804
:1044E0000A430280704702884FF6FF431A40028059
:1044F00002880A430280704721B1028842F001021B
:10450000028004E002884FF6FE731A400280704772
:1045100070B5002400220023058C4FF6FE7635404E
:104520000584028C8388048B4FF68F752C40B51E52
:104530002C400D882C43751E2A408D892A434D88B6
:104540002A43524DA84202D0564DA84213D14FF6ED
:10455000F7752A40CD892A434FF6FB752A408D888E
:104560002A434FF6FF652B404FF6FF552B400D8A2F
:104570002B434D8A2B43838004838D6845630284DB
:1045800070BD70B5002400220023058C4FF6EF7635
:1045900035400584028C8388048B48F6FF752C40D7
:1045A0004FF6FF452C400D884FF6FF7606EA0525AD
:1045B0002C434FF6DF752A408D8906EA05152A43FC
:1045C0004D8806EA05152A43304DA84202D0354DE4
:1045D000A8421DD14FF67F752A40CD894FF6FF7650
:1045E00006EA05152A434FF6BF752A408D8806EA6C
:1045F00005152A434FF6FF352B404FF2FF752B4030
:104600000D8A06EA85052B434D8A06EA85052B436C
:10461000838004838D688563028470BD70B5002437
:1046200000220023058C4FF6FF6635400584028C7E
:104630008388848B4FF68F752C404FF6FC752C4089
:104640000D882C434FF6FF552A408D894FF6FF7693
:1046500006EA05252A434D8806EA05252A430B4D1F
:10466000A84202D00F4DA84238D14FF2FF752A4020
:10467000CD894FF6FF7606EA05252A434FF6FF352A
:104680002A408D8806EA05252A4319E000000140EA
:104690000004004000080040000C004000100040F2
:1046A000001400400004014000400140004401406B
:1046B0000048014000180040001C0040002000405D
:1046C0004EF6FF752B404DF6FF752B400D8A06EA1E
:1046D00005152B434D8A06EA05152B4383808483F9
:1046E0008D68C563028470BD70B50022002300246C
:1046F000058C4EF6FF7635400584038C8488828BCA
:1047000048F6FF752A404FF6FF452A400D884FF6C0
:10471000FF7606EA05252A434DF6FF752B408D8965
:1047200006EA05352B434D8806EA05352B43FE4D39
:10473000A84202D0FD4DA84208D14BF6FF752C408F
:104740000D8A4FF6FF7606EA85152C438480828316
:104750008D680564038470BD0021018041808180E3
:1047600081608181C18101824182704770B50346B9
:10477000002000241846183001258D40ACB21D8C55
:10478000A5431D8409B108290AD100EB6100056821
:104790004FF68F76354005600568154305600FE0DC
:1047A0000D1FC5F34E052844056848F6FF763540D1
:1047B000056005684FF6FF7606EA02263543056078
:1047C00070BD4163704781637047C1637047016486
:1047D00070470A460021018B4FF68F731940114331
:1047E000018370470A460021018B48F6FF73194088
:1047F0004FF6FF7303EA02231943018370470A4609
:104800000021818B4FF68F731940114381837047CC
:104810000A460021818B48F6FF7319404FF6FF735B
:1048200003EA02231943818370470A460021018B62
:104830004FF6F77319401143018370470A46002170
:10484000018B4FF2FF7319404FF6FF7303EA022307
:104850001943018370470A460021818B4FF6F77395
:1048600019401143818370470A460021818B4FF222
:10487000FF7319404FF6FF7303EA02231943818344
:1048800070470A460021018B4FF6FB731940114314
:10489000018370470A460021018B4FF6FF33194010
:1048A0004FF6FF7303EA02231943018370470A4658
:1048B0000021818B4FF6FB731940114381837047B0
:1048C0000A460021818B4FF6FF3319404FF6FF73E4
:1048D00003EA02231943818370470A460021018BB2
:1048E0004FF67F7319401143018370470A46002138
:1048F000018BC1F30E014FF6FF7303EA0223194344
:10490000018370470A460021818B4FF67F7319405F
:104910001143818370470A460021818BC1F30E0148
:104920004FF6FF7303EA02231943818370470A4657
:104930000021018C4FF6FD7319401143018470472B
:104940000A460021018C4FF6F77319401143018488
:1049500070470A460021018C4FF6DF7319404FF66D
:10496000FF7303EA02131943018470470A460021CA
:10497000018C4FF67F7319404FF6FF7303EA021361
:104980001943018470470A460021018C4FF6FF53FA
:1049900019404FF6FF7303EA02231943018470475D
:1049A0000A460021018C4FF2FF7319404FF6FF7346
:1049B00003EA02231943018470470A460021018C4F
:1049C0004DF6FF7319404FF6FF7303EA02331943A4
:1049D0000184704730B5002301248C40A3B2048CBD
:1049E0009C430484048C02FA01F5ADB22C43048488
:1049F00030BD30B5002304248C40A3B2048C9C430A
:104A00000484048C02FA01F5ADB22C43048430BD59
:104A1000828B4FF2FF331A408283828B4FF6FF73F3
:104A200003EA01231A4382837047F0B50C4615460A
:104A3000002100220026078C4EF6FF7C07EA0C07B7
:104A40000784818B028C4FF6FF7707EA043640F625
:104A5000FF4739404FF6FF7707EA052739434FF6FE
:104A6000FF7707EA0337394345F6FF773A4046F4C4
:104A700080573A4381830284F0BD828B4FF6F373F3
:104A80001A408283828B0A4382837047F0B50C46BA
:104A90001546002100220026078C4FF6FF6C07EA1E
:104AA0000C070784818B028C4FF6FF7707EA0426F8
:104AB0004FF60C7739404FF6FF7707EA03172F437D
:104AC00039434FF2FF573A4046F480773A438183A7
:104AD0000284F0BD028B4FF2FF331A400283028B37
:104AE0004FF6FF7303EA01231A4302837047F0B5C0
:104AF0000C461546002100220026078C4FF6EF7C5D
:104B000007EA0C070784018B028C4FF6FF7707EA50
:104B1000041640F6FF4739404FF6FF7707EA0337A0
:104B200039434FF6FF7703E00000014000040140E5
:104B300007EA052739434FF65F773A4046F01007FA
:104B40003A4301830284F0BD028B4FF6F3731A409F
:104B50000283028B0A4302837047F0B50C46154668
:104B600000210022068C4FF6FE773E400684018B22
:104B7000028C4FF60C7631407E1C06EA03162E435B
:104B800031434FF6F576324044F00106324301835B
:104B90000284F0BD70B505460C46208850B92389C3
:104BA000A28861882846FFF7D8FFE1882846FFF7EA
:104BB000CBFF25E0208804280AD12389A2886188B8
:104BC0002846FFF794FFE1882846FFF783FF17E0A8
:104BD000208808280AD12389A28861882846FFF7FF
:104BE00055FFE1882846FFF748FF09E02389A2889E
:104BF00061882846FFF719FFE1882846FFF708FF7C
:104C000070BD002101804180012181800021C1808F
:104C1000018170472DE9F04105460C460026012729
:104C2000608808B9022600E00026A088012801D18A
:104C3000022700E001272088A0B92389A288618883
:104C40002846FFF78AFFE1882846FFF77DFF238982
:104C50003A4631462846FFF74AFFE1882846FFF7E3
:104C600039FF13E02389A28861882846FFF73FFFB8
:104C7000E1882846FFF72EFF23893A463146284629
:104C8000FFF76BFFE1882846FFF75EFFBDE8F08184
:104C90000146486B70470146886B70470146C86BF8
:104CA00070470146086C70470A884B881A438B8806
:104CB0001A43CB881A430B891A434B891A438B89B1
:104CC0001A43A0F844207047002101804180818070
:104CD000C180018141818181704731B1B0F84420A8
:104CE00042F40042A0F8442005E0B0F84420C2F3AA
:104CF0000E02A0F84420704721B1828842F00402DD
:104D0000828004E082884FF6FB731A4082807047ED
:104D100021B1828842F00102828004E082884FF64D
:104D2000FE731A40828070471AB183890B438381D6
:104D300002E083898B4383817047818270470246FA
:104D40000020138A0B400BB1012000E000207047C7
:104D5000CA430282704730B5024600200023002477
:104D6000158A05EA0103958905EA010413B10CB11E
:104D7000012000E0002030BDCA430282704741EAB2
:104D80000203A0F8483070471AB183890B4383812E
:104D900002E083898B438381704721B1828842F08E
:104DA0000802828004E082884FF6F7731A408280FE
:104DB000704701894FF6F8721140018170470A4629
:104DC000002101894FF68F7319401143018170470B
:104DD00030B504460D4629462046FFF7F0FF2089EE
:104DE00040F00700208130BD2DE9F04104460D461A
:104DF00016461F46602D06D13B460122314620460D
:104E0000FFF775FE05E03B46012231462046FFF7DD
:104E1000A4FE29462046FFF7D2FF208940F0070074
:104E20002081BDE8F08130B50C4600210189C9B26E
:104E30004FF6FF7505EA03251543254329430181F4
:104E400030BD2DE9F04105460E4617469846002430
:104E500043463A4631462846FFF7E5FF2C894FF690
:104E6000F870044044F007044FF68F70044044F09B
:104E700070042C81BDE8F081F0B504460D4616465D
:104E80001F463B46324629462046FFF7CCFF208985
:104E900040F480402081F0BD82884FF68F731A4025
:104EA000828082880A438280704702894FF6F873B5
:104EB0001A40028102890A430281704702894FF633
:104EC0007F731A40028102890A4302817047F0B55C
:104ED0000C4615461E460021002200230189028B44
:104EE000038C4FF6F877394021434FF6FC473A40A0
:104EF00040F201173A434FF6DD773B404FF6FF771C
:104F000007EA06172F433B43018102830384F0BD68
:104F100021B1828842F08002828004E082884FF6CC
:104F20007F731A4082807047A0F8501070470000CD
:104F300010B50446FB48844208D101218014FEF7D5
:104F400002FD0021A014FEF7FEFC3CE0F64884427E
:104F500008D101210014FEF7E5FC00212014FEF722
:104F6000E1FC30E0F148844208D10121C013FEF792
:104F7000D9FC0021E013FEF7D5FC24E0EC48844284
:104F800008D101214014FEF7DEFC00216014FEF779
:104F9000DAFC18E0E748844209D101210805FEF750
:104FA000D2FC00214FF48010FEF7CDFC0BE0E2486C
:104FB000844208D101214805FEF7C5FC00214FF4C9
:104FC0000010FEF7C0FC10BD10B50022028802F4EC
:104FD00041520B884C8823438C882343CC8823433D
:104FE0000C8923434C8923438C892343CC89234355
:104FF0001A430280838B4FF2FF74234083830B8A12
:10500000038210BD2DE9F04F0025022300244FF04C
:10501000010900220026002794469046B0F81CA003
:105020004FF2400B0AEA0B0AA0F81CA04FF0020A4C
:10503000A0F820A0858BD1F808A0BAF1020F01D109
:1050400000BF82E0B1F804A0BAF1000F02D14FF026
:10505000010901E04FF00209DFF8E0A2DAF800A050
:105060000AF4000ABAF1000F09D0DFF8D0A2DAF88A
:1050700000A02AF4000ADFF8C4B2CBF800A0DFF8E1
:10508000BCA20AF17C0ADAF800A0CAF3881CDFF897
:10509000ACA20AF17C0ADAF800A0CAF30278DFF8C1
:1050A0009CA2AAF1040ADAF800A00AF03F07DFF890
:1050B0008CA2AAF1040ADAF800A00AF4800ABAF570
:1050C000800F08D1DFF878A2BAFBF7FA0AFB0CFAD6
:1050D000BAFBF8F607E0DFF86CA2BAFBF7FA0AFBB6
:1050E0000CFABAFBF8F6B1F806A0BAF5007F0ED1BB
:1050F0004FEA162A0AEB8A0A4FEA4A0AD1F808B0A0
:10510000BAFBFBFA0AF1050A1FFA8AF20FE04FEA2E
:10511000491AB6FBFAFA0AEB8A0A4FEA4A0AD1F8A8
:1051200008B0BAFBFBFA0AF1050A1FFA8AF24FF03F
:105130000A0AB2FBFAF202F00104A2EB040ACAF373
:105140004F034FF6FF7A0AEA0424022B01DBFF2B00
:1051500001DD02230024B1F806A04AEA040A4AEA63
:10516000030AA0F820A0B1F804A0B1F80CB04AEAF4
:105170000B0AB1F802B04AEA0B0AB1F800B04AEAE9
:105180000B0A4AF4006A4AEA05058583BDE8F08FF8
:105190000021018041808180C18001814181818124
:1051A000C1810721018270470021018041808180F7
:1051B000C1800221816000218181704721B1028874
:1051C00042F04002028004E002884FF6BF731A40AA
:1051D0000280704721B1828B42F48062828304E0B6
:1051E000828B4FF6FF331A408283704702884FF25A
:1051F000FF731A40028002880A4302807047B1F5AB
:10520000804F04D1028842F48042028004E0028888
:105210004BF6FF731A40028070474FF6FF629142CF
:1052200004D0028842F48072028004E002884FF6C3
:10523000FF631A400280704721B1828842F0040265
:10524000828004E082884FF6FB731A4082807047A8
:1052500021B1828842F01002828004E082884FF6F9
:10526000EF731A408280704730B500220023848B90
:105270004FF240052C40848302240484828B0C88E6
:10528000B4F5007F01D00C8814B94FF4807308E0A6
:105290000C88B4F5407F03D00C88B4F5807F00D132
:1052A00000238C888D892C434D882C431C4344F467
:1052B00000642243828330BD014688897047818122
:1052C000704721B1028842F40052028004E0028853
:1052D0004DF6FF731A4002807047018841F48051F7
:1052E0000180704702460020012901D0108B00E0A8
:1052F000908A70470146088A70471AB183880B4329
:10530000838002E083888B438380704730B500241C
:1053100000230C110125A540ABB2AAB185881D431D
:10532000858014E00030014000380040003C00401F
:105330000034014000500140005401400838024050
:1053400000127A000024F40085889D43858030BDDA
:105350000246002013890B400BB1012000E0002021
:105360007047CA4302817047F0B50246002000240E
:105370000023002501F00F070126BE40B4B20B1137
:1053800001269E40B3B2968806EA03051689264098
:1053900016B10DB1012000E00020F0BD10B50022D3
:1053A00001F00F040123A3409AB2D343038110BD3F
:1053B000002061490860C8601F20486100208861A2
:1053C000C86108624862704700215B4A126844F273
:1053D00001039A43584B1A601A46116840F6F2725C
:1053E0009143028843881A4383881A43C3881A4327
:1053F00003891A4343891A4383891A4311434E4A46
:10540000116070470021018041808180C18001814D
:105410004181818170474188028841EA0241464AC0
:105420001162C188828841EA0241434A5162704751
:1054300030B14149096841F004013F4A116005E07B
:105440003D49096821F004013B4A11607047017829
:10545000427841EA0221827841EA0241C27841EA77
:105460000261354A9161704730B13349096841F0B2
:105470000801314A116005E02F49096821F008014F
:105480002D4A1160704730B12B49096841F48041C1
:10549000294A116005E02849096821F48041264A1B
:1054A0001160704730B12449096841F00101224A76
:1054B000116005E02049096821F001011E4A1160D0
:1054C00070471D48806A704729B11B4AD268024361
:1054D000194BDA6006E0184AD268C3439BB21A40FF
:1054E000154BDA60704710B50146002000230A13FF
:1054F00012B9114CA36806E0022A02D10E4C63686F
:1055000001E00D4C236903EA01040CB1012000E025
:10551000002010BD08494861704701460020002264
:10552000054B1B6903EA01020AB1012000E00020DB
:1055300070470149486170470000055070B5034647
:105540000C4603E014F8015B03F8015B151EA2F1A1
:105550000102F7D170BD30B5034601E003F8011B2D
:10556000141EA2F10102F9D130BD10B504467A49EA
:1055700051F824104A00794951F824000021FFF71E
:10558000EAFF774951F8242074490C3951F8240076
:105590000021FFF7E0FF012170480C30015510BDDC
:1055A00010B501460023002207E06C4850F82100A6
:1055B00030F8120000B15B1C521C674850F8210003
:1055C0009042F2D864205843634C54F82140B0FB19
:1055D000F4F0C0B210BD2DE9F04704460F46002597
:1055E000A9465E480C30005D20B95C48143801685B
:1055F000204688471FB94FF0FF30BDE8F087594873
:1056000050F82400B7FBF0F6564850F82400B7FBDA
:10561000F0F100FB117000B1761C4F4850F82400E7
:10562000451E20E04D4850F8240030F8150010B910
:1056300009F1010901E04FF00009B14512D14FF025
:10564000000808E0454850F8240005EB080220F85F
:10565000126008F10108B045F4D3424850F8240024
:105660006843CAE76D1E002DDCDA4FF0FF30C4E757
:105670002DE9F04104460E4638480C30005D38B93B
:10568000364814380168204688470120BDE8F0817B
:10569000334850F82400B04217D9324850F824005B
:1056A000B6FBF0F12D4850F8240030F81120002509
:1056B00007E00023294850F824004F1920F817303C
:1056C0006D1C9542F5DB0020E0E70220DEE770B5B7
:1056D00005460C4604B970BD20480C3850F825002A
:1056E000261A31462846FFF7C3FF00BFF3E770B51F
:1056F00004460E4631462046FFF76DFF0546681CFE
:1057000008B9002070BD15480C3850F82400284412
:10571000F8E72DE9F04104460F461646314620468B
:10572000FFF759FF0546681C10B90020BDE8F0815D
:105730000A490C3951F82410481932463946FFF706
:10574000FDFE39462046FFF7C2FF04480C3850F8EA
:1057500024002844EAE70000689800089C01002023
:1057600080980008749800080649074A0868504362
:1057700043F239021044086040087047014908604C
:1057800070470000AC0100206D4EC6412DE9F05F6E
:105790000546002092469B468846064681464024A0
:1057A0001BE0284641464746224600F042F8534651
:1057B0005A46C01A914110D311461846224600F0AD
:1057C00029F82D1A67EB01084F46224601200021D7
:1057D00000F020F817EB00094E41201EA4F101044F
:1057E000DFDC484631462A464346BDE8F09F0000CC
:1057F000064C074D06E0E06840F0010394E807001E
:1058000098471034AC42F6D3FAF7C2FC8C980008E3
:10581000AC980008202A04DB203A00FA02F10020AC
:1058200070479140C2F1200320FA03F319439040DE
:105830007047202A04DB203A21FA02F00021704749
:1058400021FA02F3D040C2F12002914008431946E8
:10585000704770B58C1810F8015B15F0070301D183
:1058600010F8013B2A1106D110F8012B03E010F8C3
:10587000016B01F8016B5B1EF9D12B0705D40023E6
:10588000521E0DD401F8013BFAE710F8013BCB1A88
:10589000921C03E013F8015B01F8015B521EF9D57D
:1058A000A142D8D3002070BD0FB4054B10B503A999
:1058B000044A029800F018F810BC5DF814FB0000D0
:1058C000592F00087001002002E008C8121F08C10B
:1058D000002AFAD170477047002001E001C1121F71
:1058E000002AFBD1704700002DE9FF4F8DB09B4689
:1058F0000F460446002606E025280BD05A460F998D
:105900009047641C761C20780028F5D111B03046F1
:10591000BDE8F08F0025A8460122984900E0054324
:1059200014F8013F203B02FA03F00842F7D1207837
:105930002E2817D114F8010F45F004052A280ED09F
:105940006FF02F022078A0F1300109290AD808EB66
:10595000880102EB410100EB0108641CF2E757F8F3
:10596000048B641C20786C280DD004DC4C2812D0E9
:105970006A2811D104E074280DD07A280CD10AE0ED
:1059800045F4001507E0617845F48015814202D1A5
:10599000641C05F58015641C2278692A45D008DC52
:1059A000002AB3D0582A69D0632A10D0642A08D1BB
:1059B0003BE0702A67D0732A13D0752A5CD0782A0E
:1059C0005CD010465A460F999047761CD3E017F8E2
:1059D000040B8DF8000000208DF80100E94601203D
:1059E00003E057F8049B4FF0FF3069074FF00005C4
:1059F00001D40AE06D1C45450DDA8542FADB19F841
:105A000005100029F6D106E06D1C8542FCDB19F873
:105A100005100029F8D12E4404E019F8010B5A466C
:105A20000F9990476D1EF8D2A5E00A200021CDE91C
:105A30000801C5F3025002280DD001CFC117031E83
:105A400071F100030DDA4FF0000CD0EB0C006CEBA1
:105A500001012D2308E0FF1D27F00707F7E80201E9
:105A6000EDE72B0504D52B238DF8283001233BE0EF
:105A7000EB0739D02023F7E70A2000E010200021AF
:105A8000CDE9080107E01020002145F00405CDE92B
:105A900008014FF00808C5F3025002280FD001CFCB
:105AA00000214FF0000A2B071FD5702A0DD0DDE929
:105AB00008C38CF0100C5CEA030C0CD015E0FF1D41
:105AC00027F00707F7E80201EBE740228DF82820CE
:105AD0004FF0010A0BE050EA010306D030238DF8A5
