:020000040800F2
:1000000060CF012045410008E9020008EB0200082A
:10001000EF020008F3020008F702000800000000E9
:10002000000000000000000000000000FB020008CB
:10003000FD02000800000000FF02000801030008A4
:100040005F4100085F4100085F4100085F41000810
:100050005F4100085F4100085F4100085F41000800
:100060005F4100085F4100085F4100085F410008F0
:100070005F4100085F4100085F4100085F410008E0
:100080005F4100085F4100085F4100085F410008D0
:100090005F4100085F4100085F4100085F410008C0
:1000A0005F4100085F4100085F4100085F410008B0
:1000B0005F410008731500083D2B00085F410008F0
:1000C0005F4100085F4100085F4100085F41000890
:1000D0005F410008BB4000085F4100085F41000825
:1000E0005F4100085F4100085F4100085F41000870
:1000F0005F4100085F4100085F4100085F41000860
:100100005F4100085F4100085F4100085F4100084F
:100110005F4100085F4100085F4100085F4100083F
:100120005F4100085F4100085F4100085F4100082F
:100130005F4100085F4100085F4100085F4100081F
:100140005F4100085F4100085F4100085F4100080F
:100150005F4100085F4100085F4100085F410008FF
:100160005F4100085F4100085F4100085F410008EF
:100170005F4100085F410008633200085F410008EA
:100180005F4100085F410008DFF80CD00AF0EEF88C
:10019000004800479D01000860CF012008B54FF4DA
:1001A000A06003F0E1FFA82003F0A6FE4FF4E130C9
:1001B00003F031FF00F0AEF902E037A00AF0A2F937
:1001C00003F056FA0028F8D101F06AF900F0BAFB02
:1001D000002006F01EFA682000F0E2FF09F058FD4A
:1001E00032490122486832A107F0EAFE044614B9F8
:1001F00030A00AF087F900F0C2F902F072FB532137
:1002000040F2E73002F048FC01F074FA42F669204F
:10021000F0231A4600210090084601F07DFB2A4990
:10022000012001F04CF801F089F803F05EF94FF479
:100230008063DA004FF46151244803F0DBF8782141
:10024000F02003F043FC02F0F3FF23E001F0ACF9EF
:100250001F49087008460078012802D11DA00AF045
:1002600051F91B480078022802D11BA00AF04AF974
:1002700000F070F9194908700846007850B118A0CC
:100280000AF040F91748007808B9012000E0002082
:1002900014490870DAE7000043616D6572612069F6
:1002A0006E6974204552520D0A000000ECCA01200C
:1002B000313A0000666C617368B9D2D4D8B3C9B959
:1002C000A6210D0A0000000055008800D875002006
:1002D0000400002031210000322100000500002030
:1002E0006F6B210006000020704700BFFEE700BFD3
:1002F000FEE700BFFEE700BFFEE7704770477047AC
:10030000704700000CB5002001900090764800680E
:1003100040F480307449086000BF7348006800F4FE
:10032000003000900198401C0190009818B9019885
:10033000B0F5A04FF1D16C48006800F4003010B166
:100340000120009001E0002000900098012846D193
:1003500065484030006840F0805063494031086093
:100360006248006840F44040604908605E480830D8
:1003700000685D49083108600846006840F40040A4
:1003800008600846006840F4A05008605848091FFB
:100390000860081F006840F08070091F086000BFF7
:1003A0005148006800F000700028F9D040F2057054
:1003B000504908604C480830006820F003004A4962
:1003C000083108600846006840F00200086000BF7D
:1003D00045480830006800F00C000828F8D10CBD32
:1003E00010B54548006840F47000434908603E4835
:1003F000006840F001003C49086000203A4908319B
:100400000860394800683D490840374908603C4861
:10041000091D0860081F006820F48020091F08607B
:10042000002031490C310860FFF76CFF4FF000608D
:1004300031498039086010BD70B5002000220223C8
:1004400000240221284D08352D6805F00C0020B14C
:10045000042806D0082834D107E02A4D2A4E3560FA
:1004600033E02A4D284E35602FE01F4D2D1D2D689D
:10047000C5F380541C4D2D1D2D6805F03F0154B16E
:10048000224DB5FBF1F5184E361D3668C6F38816B9
:1004900005FB06F209E01B4DB5FBF1F5124E361DCA
:1004A0003668C6F3881605FB06F20F4D2D1D2D6824
:1004B000C5F301456D1C6B00B2FBF3F5124E3560C0
:1004C00003E0104D104E356000BF00BF064D0835EB
:1004D0002D68C5F303150E4E705D0B4D2D68C5409C
:1004E000094E356070BD00000038024000700040C9
:1004F00008544007003C024088ED00E0FFFFF6FE94
:10050000103000240024F4000800002000127A00BB
:100510000C0000201CB50121042004F0B9F94FF4AF
:100520000050009001208DF8040000208DF8060096
:1005300003208DF8050001208DF807006946044866
:1005400003F008FF4FF40051014803F07FFF1CBD8A
:100550000008024010B55A4804780078012802D1FA
:10056000584802F0FDF956480078022802D1564852
:1005700002F0F6F9002052490870204610BD1CB563
:100580000121042004F084F900208DF804000120EA
:1005900000908DF8070003208DF8050069464B4850
:1005A00003F0D8FE00204A49C871012088711CBDA3
:1005B00010B500240121454803F02EFF00B90124A5
:1005C000204610BD10B54348007843490870FFF736
:1005D000EFFF404908704048007848B90846007865
:1005E000012805D13A48807910B1002038490880A7
:1005F00039480078012810D13648007801280CD1FC
:1006000033480088B0F5487F07DC3148807920B155
:100610002F48008814302E4908802F480078012880
:100620000DD12B480088B0F5487F08DD2848807937
:1006300028B1022022490870C9202549088026488F
:100640000078012828D12348007828BB204800885A
:10065000C82821DC1E48C07918B901201849087043
:100660001AE01B48C079012816D11948007928B929
:10067000012017490871002048800DE014480079D6
:10068000012809D112484088C82805DC03200C49FC
:10069000087000200E4908710D48007970B10C48AF
:1006A000408814300A49488008464088C82805DD3B
:1006B00001200349087000200549087110BD0000A1
:1006C0001C0000203C0000204C00002000080240DC
:1006D0001E000020260000202700002010B5044640
:1006E00000BF0221834805F087FE0028F9D021468B
:1006F000804805F038FE00BF01217E4805F07CFEF1
:100700000028F9D07B4805F02BFEC0B210BD00B523
:1007100087B00121022004F0BBF80121880304F016
:1007200000F94FF46040059002208DF81800002079
:100730008DF81A0003208DF8190001208DF81B0098
:1007400005A96D4803F006FE05220D216A4803F055
:100750008CFE05220E21684803F087FE05220F213A
:10076000654803F082FE0121880304F02FF900217F
:100770004FF4804004F02AF90020ADF800004FF457
:100780008270ADF802000020ADF804000220ADF840
:1007900006000120ADF808004002ADF80A0038203C
:1007A000ADF80C000020ADF80E000720ADF81000E9
:1007B0006946504805F05CFC01214E4805F052FDA9
:1007C000FF20FFF78BFF07B000BD10B50446494876
:1007D00000884FF6C77108404649088008460088DF
:1007E000204308800121434805F03CFD10BD00B5C1
:1007F00087B00121022004F04BF80121084604F0E3
:1008000047F80121080304F09DF802208DF8040048
:1008100000208DF80600A020009000208DF8070031
:1008200003208DF805006946344803F093FD01204C
:100830008DF8040000208DF80600082000900020AC
:100840008DF8070003208DF8050069462A4803F05B
:1008500081FD05221146294803F007FE05220721E4
:10086000264803F002FE0020ADF814000120ADF888
:1008700010000220ADF80E000720ADF8180000208F
:10088000ADF80C004FF44040ADF808000020ADF882
:1008900016004FF48270ADF80A004FF40070ADF806
:1008A000120002A9164805F0E3FB012202211448B8
:1008B00005F077FD0121124805F0D4FC07B000BD1A
:1008C00010B5044608210C4803F0C2FD00BF022108
:1008D0000B4805F091FD0028F9D02146084805F0A5
:1008E00042FD012003F022FB0821034803F0AEFD86
:1008F00010BD00000038004000040240000002402B
:100900000030014010B500240020D149086090203B
:10091000FFF7E4FE0020FFF7E1FE0020FFF7DEFE18
:100920000020FFF7DBFEFF20FFF7D8FE44EA00249B
:10093000FF20FFF7D3FE04430120C649C1F8B002EF
:10094000204610BD1CB50121022003F0A1FF4FF489
:100950008050009001208DF8040000208DF80600E2
:1009600003208DF8050001208DF807006946BA487C
:1009700003F0F0FC0120B6490860FFF7C8FE08202C
:10098000FFF723FFFFF7BEFFB44908801CBD10B579
:1009900000240020AE4908600520FFF79FFEFF20DD
:1009A000FFF79CFE04460120AA49C1F8B002204688
:1009B00010BD10B504460020A54908600120FFF7CE
:1009C0008DFE2046FFF78AFE0120A249C1F8B00241
:1009D00010BD10B500209E4908600620FFF77EFE7E
:1009E00001209C49C1F8B00210BD10B50020984903
:1009F00008600420FFF772FE01209649C1F8B0029A
:100A000010BD2DE9F04106460C46174600209049DE
:100A100008600320FFF762FEC4F30740FFF75EFEA5
:100A2000C4F30720FFF75AFEE0B2FFF757FE002598
:100A300005E0FF20FFF752FE7055681C85B2BD42ED
:100A4000F7DB012082490860BDE8F08110B500BFE6
:100A5000FFF79DFF00F001000028F9D110BD2DE93E
:100A6000F04106460C461746FFF7B3FF00207849D1
:100A700008600220FFF732FEC4F30740FFF72EFEA6
:100A8000C4F30720FFF72AFEE0B2FFF727FE002598
:100A900004E0705DFFF722FE681C85B2BD42F8DB02
:100AA00001206B490860FFF7D1FFBDE8F0812DE917
:100AB000F04107460E461446F0B2C0F58075AC42D0
:100AC00000DC254612E02A4631463846FFF7C7FFCC
:100AD000AC4200D10BE02F442E44601B84B2B4F52D
:100AE000807F02DD4FF4807500E02546EBE700BF14
:100AF000BDE8F08110B50446214659A009F002FD79
:100B00002403FFF766FFFFF7A1FF002050490860AC
:100B10002020FFF7E3FDC4F30740FFF7DFFDC4F338
:100B20000720FFF7DBFDE0B2FFF7D8FD01204949C0
:100B3000C1F8B002FFF78AFF10BD2DE9F05F8146D2
:100B40000F461646DFF820B14FEA1738C7F30B0AF5
:100B5000CAF58054A64200DC344644E04FEA08312E
:100B60004FF480525846FFF74CFF002508E00AEB8F
:100B700005001BF80000FF2800D003E0681C85B2C8
:100B8000A542F4DB00BFA54216DA4046FFF7B2FFEC
:100B9000002507E019F8050005EB0A010BF8010034
:100BA000681C85B2A542F5DB4FEA08314FF480524C
:100BB0005846FFF77CFF04E0224639464846FFF7D7
:100BC00076FFA64200D10FE008F101084FF0000ABD
:100BD000A1442744301B86B2B6F5805F02DD4FF496
:100BE000805400E03446B9E700BFBDE8F09F10B57F
:100BF000FFF7EFFEFFF72AFF002015490860C72026
:100C0000FFF76CFD01201349C1F8B002FFF71EFF8A
:100C100010BD10B500200E490860B920FFF75EFD39
:100C200001200C49C1F8B002032003F07FF910BD88
:100C300010B5002006490860AB20FFF74FFD0120EA
:100C40000449C1F8B002032003F070F910BD0000A0
:100C5000B082404200804042000402402800002050
:100C600066653A25780D0A00D856012010B504466D
:100C70002046FFF733FD10BD10B53820FFF7A5FD66
:100C800010BD10B50020FFF7A0FD10BD1CB501215F
:100C9000084603F0FDFD4020009001208DF804007F
:100CA00000208DF8060003208DF8050001208DF846
:100CB00007006946FE4803F04DFB4021FC4803F065
:100CC000C5FBFFF724FD0120FA4908601CBD10B5E3
:100CD0000120F8490860FF20FFF7C8FF10BD10B5DC
:100CE000002400BFFF20FFF7C1FFFF2801D1002033
:100CF00010BD641C6FF07F408442F3D30120F7E7FE
:100D000010B50020EB490860FFF7E9FF08B90020A3
:100D100010BDFFF7DCFF0120FAE770B505464FF67E
:100D2000FF7401E0601E84B2FF20FFF79FFFA8421E
:100D300001D0002CF6D10CB9FF2070BD0020FCE7DB
:100D400070B504460D46FE20FFF7E7FF08B101200D
:100D500070BD04E0FF20FFF7C1FC2070641C281E5A
:100D6000A5F101018DB2F5D1FF20FFF77FFFFF2034
:100D7000FFF77CFF0020EBE770B506460D46FFF756
:100D8000AEFF08B1012070BD2846FFF76FFFFD2DB3
:100D900019D0002404E0305DFFF7A0FC601C84B291
:100DA000B4F5007FF7DBFF20FFF760FFFF20FFF7C0
:100DB0005DFFFF20FFF75AFF044604F01F000528DF
:100DC00001D00220DFE70020DDE72DE9F0410546F4
:100DD0000C4617464FF00008FFF779FFFFF790FF2A
:100DE00010B1FF20BDE8F08145F04000FFF73EFF65
:100DF000200EFFF73BFFC4F30740FFF737FFC4F3B4
:100E00000720FFF733FFE0B2FFF730FF3846FFF768
:100E10002DFF0C2D02D1FF20FFF728FF4FF01F08F8
:100E200000BFFF20FFF722FF064606F0800030B12A
:100E3000B8F10000A8F1010101F0FF08F1D130463E
:100E4000D0E770B50546012200210A20FFF7BDFF5B
:100E5000044624B910212846FFF772FF0446FFF725
:100E600036FF0CB1012070BD0020FCE770B50546CF
:100E7000012200210920FFF7A8FF044624B9102110
:100E80002846FFF75DFF0446FFF721FF0CB1012064
:100E900070BD0020FCE77FB56846FFF7E7FF10B1A3
:100EA000002004B070BD9DF8000000F0C000402894
:100EB00009D19DF809009DF8081000EB0120401CA5
:100EC00084B2A50220E09DF8050000F00F009DF817
:100ED0000A1000EBD1109DF8091001F0030100EB9E
:100EE0004100861C9DF8080080119DF8071000EB5A
:100EF00081009DF8061001F0030100EB8120441CE5
:100F0000A6F1090004FA00F52846CAE7F8B5FFF78C
:100F1000BDFEFFF7B1FE002504E0FF20FFF7A6FEAF
:100F2000681C85B20A2DF8DB142600BF952200212B
:100F30000846FFF74AFF0446012C04D0301EA6F1F4
:100F400001018EB2F2D100205B490870012C4AD118
:100F500087224FF4D5710820FFF737FF012847D1CA
:100F6000002506E0FF20FFF781FE0DF80500681C54
:100F700085B2042DF6DB9DF80200012879D19DF899
:100F80000300AA2875D14FF6FE7600BF012200218A
:100F90003720FFF71AFF012291072920FFF715FFDD
:100FA000044624B1301EA6F101018EB2EED1002E0E
:100FB0005FD0012200213A20FFF707FF002858D117
:100FC000002506E0FF20FFF751FE0DF80500681C24
:100FD00085B2042DF6DB9DF8000000F0400018B14A
:100FE00006203549087044E004203349087040E089
:100FF000012200213720FFF7E8FE012200212920ED
:10100000FFF7E3FE0446012C17DC02202A49087092
:101010004FF6FE7600BF012200213720FFF7D5FEF4
:10102000012200212920FFF7D0FE0446BCB1301E6A
:10103000A6F101018EB2EED111E001201E49087027
:101040004FF6FE7600BF012200211046FFF7BDFEDD
:10105000044624B1301EA6F101018EB2F3D12EB1A7
:10106000012251021020FFF7B0FE10B100201249FA
:101070000870FFF72CFEFFF704FE0F48007808B158
:101080000020F8BD0CB12046FBE7AA20F9E72DE9C6
:10109000F04106460F46154607480078062800D05E
:1010A0007F02012D14D101223946112006E00000F3
:1010B00000000240980240422A000020FFF785FE0F
:1010C0000446FCB969023046FFF73AFE044619E0CF
:1010D000012239461220FFF778FE044600BF4FF484
:1010E00000713046FFF72CFE044606F50076681EB8
:1010F000C0B2051E01D0002CF1D0012200210C202D
:10110000FFF763FEFFF7E3FD2046BDE8F0812DE920
:10111000F04106460F46154620480078062800D0C4
:101120007F02012D0CD1012239461820FFF74DFE18
:1011300004466CBBFE213046FFF71EFE044627E046
:1011400016480078012809D0012200213720FFF736
:101150003CFE012229461720FFF737FE01223946BF
:101160001920FFF732FE044694B900BFFC21304637
:10117000FFF702FE044606F50076681EC0B2051EA3
:1011800001D0002CF2D0FD210020FFF7F5FD044630
:10119000FFF79DFD2046BDE8F08100002A000020F9
:1011A00010B59AB004460121084603F071FB0121F5
:1011B000084603F0B6FB0121480503F069FB022055
:1011C0008DF8640000208DF866000220189003203E
:1011D0008DF8650018A9AD4803F0BCF8012211464E
:1011E000AA4803F042F94FF0804004F0A3F815A894
:1011F00004F081F90020ADF85C00ADF856001694BB
:10120000ADF854008DF85E0015A94FF0804004F051
:101210003EF90121880704F0B4FD10A804F0F0FAAB
:101220006020ADF840000020ADF84C000120ADF882
:1012300042000020129010A94FF0804004F0F5F910
:101240000821C80604F04EFB00214FF0804004F056
:10125000A7F901229102080504F0EAFD8C4803F089
:1012600095FE01A803F05DFF182005908005019010
:101270004020049000200C9003200D90854803909E
:1012800000200E904FF480500990801007900020AD
:101290000A908148029000200F904FF480500890EF
:1012A000002006904FF480300B9001A9784803F09D
:1012B0000FFF0021764803F045FF1AB010BD70B54E
:1012C00002460B46002116E0002010E003FA00F46D
:1012D00004F400040CB1462400E0232401EB410592
:1012E00000EBC5056B4E46F82540441CE0B21828BB
:1012F000ECDB4C1CE1B29142E6DB70BD70B50246FE
:101300000B46002117E0002011E053F821408440F3
:1013100004F400040CB1462400E0232401EB410551
:1013200000EBC5055B4E46F82540441CE0B218288A
:10133000EBDB4C1CE1B29142E5DB70BD10B540F235
:101340003261534803F01FFF0121514803F0FAFEB8
:101350000121880704F024F950494D4803F04FFF5C
:1013600060B100214A4803F0EDFE4C49484803F0C3
:1013700062FF00214FF0804004F012F910BD10B55B
:1013800004464FF47F412046FFF799FFFFF7D6FF51
:1013900010BD10B504464FF47F012046FFF78FFFC4
:1013A000FFF7CCFF10BD10B50446FF212046FFF724
:1013B00086FFFFF7C3FF10BD70B50546002425B1B9
:1013C000012D23D0022D5FD141E000240BE000204D
:1013D00040EA04214020FFF772FFFFF7AFFF0A2029
:1013E00002F0ECFDA41CFE2CF1DBFE240BE000203F
:1013F00040EA04214020FFF762FFFFF79FFF0A2029
:1014000002F0DCFDA41E002CF1DC3DE000240BE02A
:10141000002040EA04414020FFF751FFFFF78EFF14
:101420000A2002F0CBFDA41CFE2CF1DBFE240BE015
:10143000002040EA04414020FFF741FFFFF77EFF14
:101440000A2002F0BBFDA41E002CF1DC1CE00024ED
:1014500009E021464020FFF732FFFFF76FFF0A2027
:1014600002F0ACFDA41CFE2CF3DBFE2409E02146B7
:101470004020FFF724FFFFF761FF0A2002F09EFDE6
:10148000A41E002CF3DC00BF00BF70BD00000240B2
:10149000A0600240D86601203800004000002020F3
:1014A00000B589B00121022003F0F2F901210220E8
:1014B00003F037FA02208DF8200000208DF822007A
:1014C0003020079000208DF8230003208DF82100A4
:1014D00007A9514802F03EFF022204214E4802F0C3
:1014E000C4FF022205214C4802F0BFFF0020ADF8E6
:1014F0001400ADF80E004FF6FF7004900020ADF818
:101500000C008DF8160003A9444803F0C0FF68469C
:1015100004F0CBFB0A20ADF8080069463F4804F010
:101520008DFB00231A4601213C4804F024FD0121D3
:101530003A4804F061FC01221146384804F048FCA6
:101540004FF40041354803F0EBFF1D208DF81800E3
:1015500001208DF81B008DF8190002208DF81A006B
:1015600006A802F006FE01212C4804F019F809B083
:1015700000BD10B50121294804F041FC012803D128
:101580000121264804F04CFC10BD10B5002423486E
:1015900003F0CAFFA0F5004004B24FF400411F4819
:1015A00003F0BEFF204610BD10B50024FFF7EDFF8D
:1015B0000446B4F1FF3F07D0012C0BD11848007846
:1015C000401C1749087006E016480078401C154971
:1015D000087000E000BF00BF11480078022806DB59
:1015E00000200F4908700F490870012010BD0D48F8
:1015F0000078022807DA0A48007801280AD1094849
:101600000078012806D100200549087005490870B6
:101610000220EBE70020E9E700040240000400405C
:101620002B0000202C0000201CB50121052003F018
:101630002FF901208DF8040000208DF806004FF4EA
:101640000040009000208DF8070003208DF8050071
:101650006946924802F07EFE4FF440400090694691
:101660008F4802F077FE4FF400418C4802F0EEFE06
:101670004FF440418A4802F0E9FE1CBD10B5044613
:101680002046FFF71DF910BD10B504462012FFF7E4
:1016900017F9E0B2FFF714F910BD10B504464FF486
:1016A00080417F4802F0D4FE2046FFF709F94FF44D
:1016B00080417B4802F0CAFE10BD2DE9F04107468B
:1016C0000C4615461E462A20FFF7E7FF3846FFF76F
:1016D000DBFF2846FFF7D8FF2B20FFF7DEFF204671
:1016E000FFF7D2FF3046FFF7CFFF2C20FFF7D5FFE3
:1016F000BDE8F08110B5FFF77AF8FFF795FF4FF4DA
:10170000614000F0CFF84FF40041644802F0A0FEC1
:10171000642002F053FC4FF40041604802F096FE52
:10172000642002F04BFC4FF400415D4802F08EFE55
:10173000642002F043FC1120FFF7AFFF782002F095
:101740003DFC3620FFF7A9FF0020FFF797FF3A2066
:10175000FFF7A3FF0520FFF791FFB220FFF79DFFE2
:101760000C20FFF78BFF0C20FFF788FF0020FFF70E
:1017700085FF3320FFF782FF3320FFF77FFFB7207D
:10178000FFF78BFF3520FFF779FFBB20FFF785FFC1
:101790003220FFF773FFC220FFF77FFF0120FFF722
:1017A0006DFFC320FFF779FF1520FFF767FFC42007
:1017B000FFF773FF2020FFF761FFC620FFF76DFFE3
:1017C0000F20FFF75BFFD020FFF767FFA420FFF794
:1017D00055FFA120FFF752FFE020FFF75EFFD0206A
:1017E000FFF74CFF0820FFF749FF0E20FFF746FFE9
:1017F0000920FFF743FF0920FFF740FF0520FFF70F
:101800003DFF3120FFF73AFF3320FFF737FF482035
:10181000FFF734FF1720FFF731FF1420FFF72EFFEB
:101820001520FFF72BFF3120FFF728FF3420FFF7AB
:1018300025FFE120FFF731FFD020FFF71FFF082031
:10184000FFF71CFF0E20FFF719FF0920FFF716FF17
:101850000920FFF713FF1520FFF710FF3120FFF7D6
:101860000DFF3320FFF70AFF4820FFF707FF17207F
:10187000FFF704FF1420FFF701FF1520FFF7FEFE1E
:101880003120FFF7FBFE3420FFF7F8FE2120FFF7A1
:1018900004FF2920FFF701FF10BD000000000240F7
:1018A0000008024010B590B004460121880502F0FE
:1018B000EFFF164803F06AFB05944FF0C0600190FB
:1018C0004020049000200C900D90114803900020BF
:1018D0000E904FF400500990C01007900D480290F0
:1018E00000200F904FF400600890002006900A90AE
:1018F0004FF480300B9001A9044803F0E9FB00216C
:10190000024803F01FFC10B010BD000058640240F4
:101910002E0000200C3001402DE9F05F074688467C
:1019200015461E46DDF828904FF0010AFE48006873
:1019300000F4806030B1FC49086820F4806000BF8A
:10194000086000BFF948A0F80090E81BA6EB08016A
:1019500000FB01F4701E83B2681E82B24146384615
:10196000FFF7ABFE0821F24802F072FD4FF4006170
:10197000F04804F08FFC0121EE4804F073FC28E0ED
:101980004FF6FE70844202D9241A834602E04FF0DB
:10199000000AA3460021E44803F0D4FB0022E349F7
:1019A000E14803F00DFC1FFA8BF1DF4803F0EBFB7D
:1019B0000121DD4803F0C6FB00BF4FF0C051DA48FB
:1019C00003F01DFC0028F8D04FF0C051D64803F0BA
:1019D00032FCBAF1000FD3D10021D34803F0B2FB9F
:1019E0000821D34802F032FD0021D24804F052FC15
:1019F0000121D04804F036FCBDE8F09F2DE9F04706
:101A000006460F4614461D46DDF820A0681E83B228
:101A1000601E82B239463046FFF74FFEB8460EE0F0
:101A2000B14606E05046FFF72FFE09F101001FFA0C
:101A300080F9A145F6DB08F101001FFA80F8A845FE
:101A4000EEDBBDE8F0872DE9F047074688461546EE
:101A50001E464FF00109B448006800F4806038B9B0
:101A6000B149086820F4806040F48060086000BFDD
:101A7000E81BA6EB080100FB01F4701E83B2681E90
:101A800082B241463846FFF718FE0821A84802F006
:101A9000DFFC4FF40061A74804F0FCFB28E04FF6A0
:101AA000FE70844202D9241A824602E04FF00009F7
:101AB000A24600219C4803F045FB00229E499A481B
:101AC00003F07EFB1FFA8AF1974803F05CFB0121CB
:101AD000954803F037FB00BF4FF0C051924803F028
:101AE0008EFB0028F8D04FF0C0518F4803F0A3FBC5
:101AF000B9F1000FD3D100218B4803F023FB08215B
:101B00008B4802F0A3FC00218A4804F0C3FBBDE827
:101B1000F08770B504460D4616462B4622462946E8
:101B20002046FFF7CAFD3046FFF7AEFD70BD2DE938
:101B3000FF4F85B081468A46002003908346079870
:101B4000A0EB09050898A0EB0A06CDF80890CDF89F
:101B500004A0002D01DD012705E00DB9002702E0FA
:101B60004FF0FF376D42002E02DD4FF0010806E016
:101B700016B94FF0000802E04FF0FF387642B54248
:101B800001DD2C4600E03446002004901EE0019A5E
:101B900091B2029A90B2129AFFF7BBFF03982844C1
:101BA0000390B3440398A04205DD0398001B039003
:101BB000029838440290A34504DDABEB040B019876
:101BC000404401900498401C80B20490611C049829
:101BD0008842DCDB09B0BDE8F08F2DE9F84305460B
:101BE0000E4617469846089C33463A4631462846E4
:101BF0000094FFF79CFF43462A463146284600944E
:101C0000FFF795FF43463A46414628460094FFF7C2
:101C10008EFF43463A46314638460094FFF787FF29
:101C2000BDE8F8832DE9F04706460F4690469946F1
:101C30000025444641E07A1B91B2321B90B24A46DD
:101C4000FFF767FF7A1B91B2321990B24A46FFF74D
:101C500060FF3A1991B2721B90B24A46FFF759FFE2
:101C60003A1B91B2721B90B24A46FFF752FF7A19A3
:101C700091B2321990B24A46FFF74BFF3A1B91B22C
:101C8000721990B24A46FFF744FF3A1991B272199D
:101C900090B24A46FFF73DFF7A1991B2321B90B2DB
:101CA0004A46FFF736FF6D1C05FB05F004FB0401F7
:101CB00008FB08F0814200DD641EA542BBDDBDE8E3
:101CC000F0872DE9FF5F0646894692469B460F9CAA
:101CD0000020039000962046E21704EB5272D210C7
:101CE0002146E31704EB5373DB10A4EBC3030BB1E2
:101CF000012300E000231A44624392B201920520BE
:101D0000029000257FE005EB85100C4911F81000CA
:101D10009AF80010884273D105EB8510074901EB52
:101D2000400040780CE00000586402402E00002083
:101D30000004024000300140D875002088E400080B
:101D40009AF8011088425BD109EB0400401E83B26F
:101D50003019401E82B249463046FFF7AEFC0027DC
:101D60004BE04FF0000842E01098F8B905EB851001
:101D7000FB4901EB4000801CC05D012101FA08F124
:101D8000084018B15846FFF77FFC02E00E98FFF7B5
:101D90007BFC0398401CC0B20390039890FBF4F1C5
:101DA00004FB1100F8B90020039023E005EB851037
:101DB000EB4901EB4000801CC05D012101FA08F1F4
:101DC000084020B15A4649463046FFF7A2FE701C33
:101DD00086B20098301AA04205D1009E09F1010098
:101DE0001FFA80F906E008F1010000F0FF08B8F1E1
:101DF000080FB9DB00BF781CC7B201988742B0DB7F
:101E000000BF681C85B202988542FFF67CAFBDE832
:101E1000FF9F2DE9FF5F0646894692469B460F9C31
:101E20000020039000962046E21704EB5272D21075
:101E30002146E31704EB5373DB10A4EBC3030BB190
:101E4000012300E000231A44624392B2019205206C
:101E50000290002579E005EB850000EB4510C149B3
:101E600011F810009AF8001088426BD105EB85003C
:101E700000EB4510BB4901EB400040789AF8011097
:101E800088425FD109EB0400401E83B23019401E26
:101E900082B249463046FFF710FC00274FE04FF072
:101EA000000846E0109808BB05EB850000EB4510E4
:101EB000AC4901EB4000801CC05D012101FA08F132
:101EC000084018B15846FFF7DFFB02E00E98FFF715
:101ED000DBFB0398401CC0B20390039890FBF4F125
:101EE00004FB110008BB0020039025E005EB8500F2
:101EF00000EB45109B4901EB4000801CC05D0121B7
:101F000001FA08F1084020B15A4649463046FFF729
:101F100000FE701C86B20098301AA04205D1009EC7
:101F200009F101001FFA80F906E008F1010000F054
:101F3000FF08B8F1080FB5DB00BF781CC7B20198E5
:101F40008742ACDB00BF681C85B20298854282DB09
:101F5000BDE8FF9F2DE9FF5F0646894692469B46F6
:101F60000F9C0020039000962046E21704EB52726B
:101F7000D2102146E31704EB5373DB10A4EBC30329
:101F80000BB1012300E000231A44624392B2019294
:101F900005200290002571E005EB0510724911F84B
:101FA00010009AF80010884265D105EB05106E49C3
:101FB00001EB400040789AF8011088425BD109EBB0
:101FC0000400401E83B23019401E82B2494630469A
:101FD000FFF773FB00274BE04FF0000842E010983A
:101FE000F8B905EB0510604901EB4000801CC05DAD
:101FF000012101FA08F1084018B15846FFF744FBE7
:1020000002E00E98FFF740FB0398401CC0B203901B
:10201000039890FBF4F104FB1100F8B90020039041
:1020200023E005EB0510504901EB4000801CC05D2A
:10203000012101FA08F1084020B15A4649463046CC
:10204000FFF767FD701C86B20098301AA04205D1D8
:10205000009E09F101001FFA80F906E008F1010075
:1020600000F0FF08B8F1080FB9DB00BF781CC7B259
:1020700001988742B0DB00BF681C85B20298854298
:102080008ADBBDE8FF9F2DE9FF5F06468946924641
:102090009B460F9C0020039000962046E21704EB1D
:1020A0005272D2102146E31704EB5373DB10A4EBFA
:1020B000C3030BB1012300E000231A44624392B230
:1020C000019205200290002582E005EB850000EBDF
:1020D000C500264911F810009AF80010884274D102
:1020E00005EB850000EBC500204901EB400040787E
:1020F0009AF80110884268D109EB0400401E83B2AF
:102100003019401E82B249463046FFF7D6FA002702
:1021100058E04FF000084FE0109848BB05EB8500F1
:1021200000EBC500114901EB4000801CC05D01219E
:1021300001FA08F1084018B15846FFF7A5FA02E085
:102140000E98FFF7A1FA0398401CC0B203900398C1
:1021500090FBF4F104FB110050BB002003902EE033
:1021600088E4000816E300086CE20008EAE10008D1
:10217000FFE705EB850000EBC500FE4901EB4000E1
:10218000801CC05D012101FA08F1084020B15A46C7
:1021900049463046FFF7BDFC701C86B20098301AE5
:1021A000A04205D1009E09F101001FFA80F906E066
:1021B00008F1010000F0FF08B8F1080FACDB00BF28
:1021C000781CC7B201988742A3DB00BF681C85B2A8
:1021D00002988542FFF679AFBDE8FF9F2DE9FE4FDB
:1021E0008046894617469A46DDE90D460C9D36E045
:1021F0000C2C09D153463A4649464046CDE90146A2
:102200000095FFF740FF25E0102C09D153463A46D0
:1022100049464046CDE901460095FFF79BFE19E08F
:10222000182C09D153463A4649464046CDE9014665
:102230000095FFF7EEFD0DE0202C09D153463A46FC
:1022400049464046CDE901460095FFF73AFD01E0D9
:10225000BDE8FE8FBF1C08EB04001FFA80F8387839
:102260000028C5D100BFF3E72DE9FF5F80468A460D
:1022700017469B460F9D00200290CDF8008028460F
:1022800005EBD071C1F347042046E21704EB52720C
:10229000D2102146E31704EB5373DB10A4EBC30306
:1022A0000BB1012300E000231A446A4392B2019269
:1022B000A7F12000C7B20AEB0500401E83B208EB6D
:1022C0000400401E82B251464046FFF7F6F9002650
:1022D00069E00C2D07D107EB4700A74901EB80000F
:1022E000805D03901BE0102D05D1A44800EB071082
:1022F000805D039013E0182D07D107EB4700A0493C
:1023000001EB0010805D039009E0202D05D19D4870
:1023100000EB8710805D039001E0BDE8FF9F4FF068
:1023200000093AE01098C8B9012000FA09F00399B1
:10233000084018B15846FFF7A7F902E00E98FFF7DA
:10234000A3F90298401CC0B20290029890FBF4F1ED
:1023500004FB1100E8B90020029021E0012000FAFE
:1023600009F00399084020B15A4651464046FFF70C
:10237000D0FB08F101001FFA80F80098A8EB0000DC
:10238000A04206D1DDF800800AF101001FFA80FAB0
:1023900006E009F1010000F0FF09B9F1080FC1DB07
:1023A00000BF701C86B20198864292DB00BFB4E782
:1023B0002DE9FE4F06460F4614469846DDE90D5AB4
:1023C000DDF8309010E0CDE9015ACDF80090227888
:1023D000434639463046FFF747FF284605EBD071A4
:1023E00006EB61018EB2641C20780028EBD1BDE8B9
:1023F000FE8F10B50246012000E050430B1EA1F1F4
:102400000104E1B2F9D110BD2DE9FF4F85B00746B7
:1024100091461D46DDE913A600200490304606EBE8
:10242000D071C1F3470B002434E0281B401EC1B219
:102430000A20FFF7DEFFB9FBF0F00A21B0FBF1F252
:1024400001FB12080498A0B9681EA04211DDB8F182
:10245000000F0CD1002004FB0B71CDE900A6029007
:1024600088B22022129B0699FFF7FEFE10E00120A1
:102470000490002008F13001CAB204FB0B71CDE9D1
:1024800000A6029088B2129B0699FFF7EDFE00BFEE
:10249000601CC4B2AC42C8DB09B0BDE8F08F2DE9C6
:1024A000FF4F2DED020B2DED028B83B00746B0EEF2
:1024B000408A1446DDE91486304606EBD071C1F33C
:1024C000470A9FED310A28EE000ABCEEC00A10EE62
:1024D000100A1FFA80FB002530E0601B401EC1B2CD
:1024E0000A20FFF786FFBBFBF0F00A21B0FBF1F2F8
:1024F00001FB1209A01EA84210D10020A11E01FB61
:102500000A71CDE90086029088B22E220A9B0899B2
:10251000FFF7AAFE681CC5B2601CC4B2002009F116
:102520003001CAB205FB0A71CDE90086029088B27B
:102530000A9B0899FFF798FE681CC5B2A542CCDB40
:1025400003B0BDEC028B06B0BDE8F08F2DE9F05F63
:102550000746884615461E46DDF82890002408EBFD
:102560000600401E83B27819401E82B241463846AA
:102570000CE00000EAE10008F6AD00086AB20008CD
:102580005AB800082ACA00080000C842FFF795F8A8
:10259000A24618E04FF0000B0FE019F81400FFF707
:1025A0006DF8012101EB440119F80100FFF766F80D
:1025B000641C0BF101001FFA80FBB345EDDB0AF14F
:1025C00001001FFA80FAAA45E4DBBDE8F09F10B5D0
:1025D000F02800DBEF20782900DB7721F02303FBD4
:1025E00001039F4C24F8132010BD2DE9FF4F84B048
:1025F00081468A460020029083460698A0EB090592
:102600000798A0EB0A06CDF80490CDF800A0002DA5
:1026100001DD012705E00DB9002702E04FF0FF378B
:102620006D42002E02DD4FF0010806E016B94FF0B2
:10263000000802E04FF0FF387642B54201DD2C463B
:1026400000E03446002003901EE0009A91B2019A07
:1026500090B2119AFFF7BBFF029828440290B3444E
:102660000298A04205DD0298001B029001983844B0
:102670000190A34504DDABEB040B009840440090AF
:102680000398401C80B20390611C03988842DCDBF5
:1026900008B0BDE8F08F2DE9F84105460E46174613
:1026A0009846079C33463A46314628460094FFF741
:1026B0009CFF43462A46314628460094FFF795FF83
:1026C00043463A46414628460094FFF78EFF43466C
:1026D0003A46314638460094FFF787FFBDE8F88157
:1026E0002DE9FF4F82B007468B469046109D4FF074
:1026F0000009BA46284605EBD071C1F347042046CD
:10270000E21704EB5272D2102146E31704EB537325
:10271000DB10A4EBC3030BB1012300E000231A4438
:102720006A4392B20092A8F1200000F0FF08002650
:102730006FE00C2D07D108EB48004A4901EB8000FF
:10274000805D01901CE0102D05D1474800EB08107A
:10275000805D019014E0182D07D108EB4800434933
:1027600001EB0010805D01900AE0202D05D140486A
:1027700000EB8810805D019002E006B0BDE8F08FAC
:102780004FF000093FE01198E0B9012000FA09F08C
:102790000199084028B159463846059AFFF717FFB6
:1027A00004E0594638460F9AFFF711FF781C87B2AC
:1027B000A7EB0A00A04222D157460BF101001FFAF5
:1027C00080FB23E0012000FA09F00199084028B1BC
:1027D00059463846059AFFF7FAFE04E0594638464E
:1027E0000F9AFFF7F4FE781C87B2A7EB0A00A0420D
:1027F00005D157460BF101001FFA80FB06E009F1F5
:10280000010000F0FF09B9F1080FBCDB00BF701C2C
:1028100086B2009886428CDB00BFAEE72DE9FE470A
:1028200006460F4614469846DDE90C5ADDF82C9012
:1028300010E0CDE9015ACDF80090227843463946A0
:102840003046FFF74DFF284605EBD07106EB6101DE
:102850008EB2641C20780028EBD1BDE8FE87000012
:10286000D8750020F6AD00086AB200085AB8000812
:102870002ACA000810B588B004460121084602F0B3
:1028800061F80020ADF81C00ADF81600601E06903F
:10289000A720ADF8140000208DF81E0005A9774888
:1028A00002F0F5FD684602F0ABFF6020ADF80000D5
:1028B0000020ADF80C000120ADF80200204604EB2A
:1028C000D0714910029169466C4802F075FE0121F1
:1028D0006A4803F056FA0021684802F061FE08B029
:1028E00010BD1CB50121084601F0D2FF02208DF871
:1028F000040000208DF806004FF480700090022044
:102900008DF8070003208DF8050069465C4801F04A
:1029100021FD012208215A4801F0A7FD4FF4B970AA
:10292000FFF7A8FF012057490870622088721CBD7C
:10293000014609B900207047DFED530AB0EE600A86
:1029400000EE901AF8EE600A9FED501AC1EE201AC0
:10295000B0EE610AFCEEC00A10EE900A80B2EAE71F
:1029600070B505460021454802F01AFE484805604A
:10297000002401E0601C84B24548006810F824007F
:102980003D28F7D13F48C48000203E4908810120FE
:10299000887070BD10B53B48407800284CD039484D
:1029A0000078002848D0374800893649C9888842CD
:1029B00021DA34490989364A126812F82110354A59
:1029C00032F81100FFF7B4FF2C49C8620846C06A0C
:1029D00080B22C49897AC1F1640190FBF1F027495A
:1029E000486328488088401E264988800121234862
:1029F00002F0D6FD0BE00021204802F0D1FD0020BE
:102A0000204948704FF480711D4801F021FD1D4898
:102A100080884FF6FF71884217DB1A480089401CF6
:102A200018490881084600891949096801EB8000A6
:102A300040881449888008E00021104802F0B0FD69
:102A40004FF480710E4801F003FD0E48807898B174
:102A50000C48007880B100200A4988700846008937
:102A600050B901204870084600890949096801EBFE
:102A7000800040880349888010BD000000000140AC
:102A800000000240A07F01200000000000247449E3
:102A90003000002012E700087FB505460C460121F2
:102AA000042001F03EFF0020ADF80C00ADF8060058
:102AB0000295ADF804408DF80E0001A93A4802F0E5
:102AC000E6FC0121384803F097F901221146364807
:102AD00003F07EF91E208DF8000001208DF8030020
:102AE00000208DF8010002208DF80200684601F0F8
:102AF00040FB01212C4802F053FD7FBD10B500249E
:102B00002A48006807F000FA07F0F4F94FF47A71E8
:102B100090FBF1F201FB1204204610BD70B5044693
:102B20000025204607F0F0F907F0E4F94FF47A7138
:102B300090FBF1F201FB1205284670BD10B5012192
:102B4000194803F05CF901282CD10121164803F043
:102B500067F916480068401C14490860FFF71AFF1F
:102B600013480078142804DBFDF72CFD00201049E1
:102B700008700F480078401C0D4908700D48008807
:102B8000B0F57A7F09DB0C4801780CA007F0BAFC9D
:102B90000020084908800849087006480088401C41
:102BA0000449088010BD00000008004068010020B2
:102BB0006C0100206E010020700100206F765F66BE
:102BC00072616D65203D2025640D0A0070B50021FD
:102BD000002350220024002035E0502590FBF5F61C
:102BE00005FB160525B918B102F1A105AAB201E04D
:102BF000551CAAB2FA4D35F812500DB94D1CA9B2A8
:102C0000502592FBF5F605FB1625D5B9CD1A052DF5
:102C100002DD052B00DA01248CB105290FDA00EE64
:102C2000100AB8EE400ADFEDEF0A80EE201ABCEE83
:102C3000C10A10EE105AEC4E3580002406E00B4617
:102C40000021451CA8B2B0F5965FC6DB00BF70BD81
:102C500070B50021002346F6E0720024002039E020
:102C6000502590FBF5F605FB160525B918B1A2F520
:102C7000A075AAB201E0551CAAB2D94D35F8125080
:102C80000DB94D1CA9B2502592FBF5F605FB162592
:102C9000F5B9CD1A052D02DD012B00DA0124ACB106
:102CA000052913DA00EE100AF8EE400A9FEDCD1A5E
:102CB00080EE810ADFEDCD0A30EEC00ABCEEC00A1C
:102CC00010EE105ACA4E3580002406E00B46002153
:102CD000451CA8B2B0F5965FC2DB00BF70BD30B531
:102CE000C14C2488C24D2D88601900EBD074C4F308
:102CF0004F04C04D2C800021002328460088C0EBE3
:102D000000109624C4EB001082B2002033E03C2473
:102D100090FBF4F504FB150424B918B1A2F59674E0
:102D2000A2B201E0541CA2B2AD4C34F812400CB96E
:102D30004C1CA1B23C2492FBF4F504FB1524C4B94D
:102D40005C1A1E2C13DD002911DC00EE100AB8EE0F
:102D5000400ADFEDA90A80EE201ABCEEC10A10EE8F
:102D6000104AA44D2D882C1B9F4D2C800AE00B4649
:102D70000021441CA0B29F4C2488C4EB0414A4007E
:102D80008442C4DC00BF30BD30B5974C2488984DD8
:102D90002D88601900EBD074C4F34F04954D2C803E
:102DA0000021002328460088C0EB00109624C4EBC5
:102DB000001082B2002033E03C2490FBF4F504FBC9
:102DC000150424B918B102F1B504A2B201E0541CF3
:102DD000A2B2834C34F812400CB94C1CA1B23C2472
:102DE00092FBF4F504FB1524C4B95C1A1E2C13DD08
:102DF000002911DC00EE100AB8EE400ADFED7E0A71
:102E000080EE201ABCEEC10A10EE104A794D2D88D2
:102E10002C44774D2C800CE00B460021441CA0B2C2
:102E2000744C2488C4F17804C4EB0414A4008442D4
:102E3000C2DC00BF30BD30B56B480088C0EB00106D
:102E4000582101EB001082B2DFED6C0AB0EE600A8F
:102E5000002013E0482190FBF1F301FB130121B99D
:102E600018B102F1A9018AB201E0511C8AB25C4991
:102E700011F81210624B1954411C88B25C49098840
:102E8000594B1B88C91A01EBC101C9008142E1DC21
:102E90005748008854490988401A00EE900AF8EE15
:102EA000E00AB3EE001AC0EE811AB0EE610A00200B
:102EB00019E0002113E001EBC104FCEEC00A10EEA2
:102EC000903A9BB2434303EBC30304EBC3034C4C64
:102ED000E35C01EBC0044B4D2B554B1C99B2082908
:102EE000E9DB411C88B21028E3DB30BD10B52DEDC5
:102EF000048B84B09FED410AB0EE408A002014E0BC
:102F00004049095C404A125C891A8CB2FF2C00DDF2
:102F1000FF2404FB04F100EE101AB8EEC00A30EEF4
:102F2000080AB0EE408A411C88B28028E8DB9FED99
:102F3000370AC8EE000AB0EE608A9FED350AB4EE9B
:102F4000C08AF1EE10FA11DD0020182147F6E07278
:102F500040F2FF53CDE9002102902EA201465020FD
:102F6000FFF75CFC04B0BDEC048B10BD9FED230AA1
:102F7000B0EE408A002014E02249095C264A125C27
:102F8000891A8CB2FF2C00DDFF2404FB04F100EE53
:102F9000101AB8EEC00A30EE080AB0EE408A411CA2
:102FA00088B28028E8DB9FED190AC8EE000AB0EE6F
:102FB000608A9FED1A0AB4EEC08AF1EE10FA31DD94
:102FC0000020182147F6E07240F2FF53CDE90021BE
:102FD000029013A201465020FFF720FCC2E7000038
:102FE000D87500200000A042F60400200000F04246
:102FF000F8040020FA0400200000704200000000E5
:10300000AC7F0120EC9E01207101002000000043F4
:1030100000A85E4732000000F101002000D85647AA
:10302000330000001FED0B0AB0EE408A002014E0D0
:10303000FE49095CFE4A125C891A8CB2FF2C00DD45
:10304000FF2404FB04F100EE101AB8EEC00A30EEC3
:10305000080AB0EE408A411C88B28028E8DB1FEDE8
:10306000150AC8EE000AB0EE608A18EE100A06F0E3
:103070006AFF41EC190B53EC192BEEA007F042FA52
:103080009FEDF20AB4EEC08AF1EE10FA0EDD0020D8
:10309000182147F6E07240F2FF53CDE9002102907B
:1030A000EBA201465020FFF7B9FB5BE71FED2D0AAD
:1030B000B0EE408A002014E0DC49095CE54A125C6D
:1030C000891A8CB2FF2C00DDFF2404FB04F100EE12
:1030D000101AB8EEC00A30EE080AB0EE408A411C61
:1030E00088B28028E8DB1FED370AC8EE000AB0EE90
:1030F000608A18EE100A06F026FF41EC190B53EC1B
:10310000192BCCA007F0FEF99FEDD30AB4EEC08ACC
:10311000F1EE10FA0EDD0020182147F6E07240F2C1
:10312000FF53CDE900210290CCA201465020FFF7C9
:1031300075FB17E71FED4F0AB0EE408A002014E040
:10314000BA49095CC64A125C891A8CB2FF2C00DDB0
:10315000FF2404FB04F100EE101AB8EEC00A30EEB2
:10316000080AB0EE408A411C88B28028E8DB1FEDD7
:10317000590AC8EE000AB0EE608A18EE100A06F08E
:10318000E2FE41EC190B53EC192BAAA007F0BAF997
:103190009FEDB40AB4EEC08AF1EE10FA0EDD002005
:1031A000182147F6E07240F2FF53CDE9002102906A
:1031B000ADA201465020FFF731FBD3E61FED710AA7
:1031C000B0EE408A002014E09849095CA74A125CDE
:1031D000891A8CB2FF2C00DDFF2404FB04F100EE01
:1031E000101AB8EEC00A30EE080AB0EE408A411C50
:1031F00088B28028E8DB1FED7B0AC8EE000AB0EE3B
:10320000608A9FED950AB4EEC08AF1EE10FA0DDDEA
:103210000020182147F6E07240F2FF53CDE900216B
:10322000029093A201465020FFF7F8FA00BF99E6FA
:1032300010B501218F4801F085FF012003F086F9C8
:1032400010BD10B5002003F081F900BF8A48006866
:1032500000F001000028F9D10021864801F072FF3A
:1032600010BD38B5012003F0ACF9012871D103F08D
:10327000B4F9FFF7E6FF002047E0804A32F810205B
:1032800002F4714212124D2312FB03F27B4B33F80E
:10329000103003F4FC63DB10C3EB031303EB830375
:1032A00002EB4302754B13F81030DB061B0E03EBE9
:1032B0004304C4EB43131A4402F18001CA1701EB23
:1032C0001262C2F307226E4B1A8019460988C91090
:1032D0001A46127822F0030241EAC2011A46127815
:1032E000002241EA0221674A1154194609886E29D1
:1032F00005DD4FF6FF71614A22F8101003E000214E
:103300005E4A22F81010411C88B2B0F5E14FB4DBE0
:10331000FFF75CFCFFF79CFCFFF78DFDFFF7E6FD78
:1033200047F6E0700090584803889C22574801886F
:103330005420FFF7B0F97823F02200210846FEF769
:1033400082FB53480078002844D0FFF774FD002426
:1033500016E04EE0E11704EB5171C910A4EBC10176
:1033600011B94CA007F0CEF83048005D18B94AA05A
:1033700007F0C8F802E049A007F0C4F8601C84B266
:10338000802CE7DB002408E02848005D18B92146BE
:1033900043A007F0B7F8601C84B2802CF4DB3DA09A
:1033A00007F0B0F800240BE02048005D18B93DA0FC
:1033B00007F0A8F802E03DA007F0A4F8601C84B272
:1033C000802CF1DB3248007808B9012000E00020B1
:1033D0002F4908703648006808B9012000E0002035
:1033E0003349086033480078401C32490870FFF7C1
:1033F0001FFF38BDF0B58FB004460D4616461F4678
:103400000121880501F044FA1A4801F0BFFD00BF10
:10341000184801F0E4FE0028FAD14FF00070009047
:103420001548283001900294002045E0EC9E0120D0
:1034300071020020766172202F3D2038202A203131
:10344000363B203D20252E32660D0A0000084F47EE
:1034500034000000F1020020005043473500000016
:10346000F103002000B45C47370000007104002025
:10347000390000002864024000000550D875002083
:10348000F204002058050020F8040020F604002073
:10349000060000200D0A000040000000200000008F
:1034A00025642C003235352C00000000302C000043
:1034B000B4024142700100200390049505900697E4
:1034C0004FF48050079008960011099040020A902E
:1034D00004200B9003200C9000200D900E90694664
:1034E0005E4801F0F5FD0FB0F0BD0EB501210F20D3
:1034F00001F0CEF90121084601F0DBF950200190DE
:1035000002208DF8080000208DF80A0003208DF8B5
:10351000090001208DF80B0001A9514800F01AFFA5
:103520004FF47070019001A94E4800F013FF4FF462
:103530003C60019001A94C4800F00CFF0D220421D1
:10354000474800F092FF0D220621454800F08DFF0C
:103550000D220721434800F088FF0D220621424832
:1035600000F083FF0D2207213F4800F07EFF0D226F
:1035700008213D4800F079FF0D2209213A4800F06A
:1035800074FF0D220B21384800F06FFF0D22062139
:10359000344800F06AFF0D220821324800F065FF30
:1035A0000D2209212F4800F060FF02F055FF002096
:1035B0002E49088048818881088120208880002049
:1035C0004880C880084602F053FF0121084602F0F7
:1035D000CFFF012002F0ABFF4E208DF8000000204D
:1035E0008DF801008DF8020001208DF80300684677
:1035F00000F0BFFD0EBD2DE9F04106460F46144612
:103600001D46FFF71EFE2946204600F05FFA012105
:10361000124801F097FD012002F098FFBDE8F0810B
:1036200070B504460E46154602F016FF00200F49FD
:10363000088048818881B00108816001888000206D
:103640004880E801C880084602F012FF012002F01D
:103650007DFF012002F06BFF70BD00002864024076
:103660000000024000040240000802406C9F01205C
:103670007CB5002501210C2001F00AF904200090FE
:1036800001208DF8040000208DF8060002208DF83E
:10369000050001208DF807006946FC4800F05AFE3D
:1036A0004FF4806000906946F94800F053FE002016
:1036B000F84908600A2000F081FC0020F649C1F8B2
:1036C000A8020A2000F07AFC0120F449086000F00A
:1036D000C7FA0121FF2000F0C2FB8021122000F078
:1036E000BEFB322000F06AFC1C2000F0D7FB044631
:1036F0004FF6FF7000EA04241D2000F0CFFB0443C6
:1037000047F6A270844205D02146E5A006F0FAFEF5
:1037100001207CBD0A2000F0C1FB04464FF6FF707B
:1037200000EA04240B2000F0B9FB044342F242609B
:10373000844203D02146DDA006F0E4FE00250AE025
:10374000DD4A02EB45025178DB4A12F8150000F021
:1037500086FB681C85B2B12DF2D30020D9E710B5E5
:10376000002400BF0AE0D54A02EB44025178D34A54
:1037700012F8140000F073FB601C84B2082CF2D322
:1037800000240AE0CE4A02EB44025178CC4A12F8F7
:10379000140000F064FB601C84B2072CF2D310BD4F
:1037A00010B5002400BF0AE0C64A02EB440251787B
:1037B000C44A12F8140000F052FB601C84B20E2CB4
:1037C000F2D310BD70B50546BF4800EBC506002416
:1037D00009E0012202EB4402B15C16F8140000F08B
:1037E0003EFB601CC4B2042CF3DB70BD2DE9F0413C
:1037F00004465E254126542734B1022C0ED0032CFA
:1038000010D0042C16D111E00021FF2000F027FB7E
:103810001021C72000F023FBBDE8F081652541267B
:103820004F2707E052254126662703E042253F2621
:10383000712700BF00BF0021FF2000F010FB4021D6
:10384000C72000F00CFB2946CC2000F008FB3146D5
:10385000CD2000F004FB3946CE2000F000FB00BF75
:10386000DAE770B50446A01C082141EA0010C5B291
:103870000021FF2000F0F3FA00217C2000F0EFFA95
:1038800002217D2000F0EBFA03217C2000F0E7FA12
:1038900029467D2000F0E3FA29467D2000F0DFFA7A
:1038A00070BD10B504460021FF2000F0D8FA0021B9
:1038B0007C2000F0D4FA04217D2000F0D0FA092108
:1038C0007C2000F0CCFA2007010E7D2000F0C7FA22
:1038D00000217D2000F0C3FA10BD70B504462025FC
:1038E000202634B1012C07D0032C08D0042C0CD195
:1038F00008E01825342608E01C252A2605E02425A2
:10390000162602E028250C2600BF00BF0021FF205C
:1039100000F0A5FA00217C2000F0A1FA04217D200E
:1039200000F09DFA07217C2000F099FA20217D20EB
:1039300000F095FA29467D2000F091FA31467D206D
:1039400000F08DFA06217D2000F089FA70BD2DE986
:10395000F0410446002580268027072C19D2DFE895
:1039600004F0180406080C101400402511E0182576
:103970000FE018254026C0270BE0182540264027D9
:1039800007E01825A026402703E018254026A62793
:1039900000BF00BF0021FF2000F061FA00217C2061
:1039A00000F05DFA29467D2000F059FA05217C20BF
:1039B00000F055FA31467D2000F051FA39467D205D
:1039C00000F04DFABDE8F08170B505460121FF20F9
:1039D00000F045FA122000F061FA044624F00204D7
:1039E0000DB144F002042146122000F038FA70BDF7
:1039F0002DE9F04705460E4617469846384607EB30
:103A0000D07105EB61011FFA81F9404608EBD071D6
:103A100006EB61011FFA81FA0121FF2000F01FFA75
:103A2000032000F03BFA044604F0F0040AF003011E
:103A3000304661F39F0004432146032000F00FFA53
:103A4000C6F38701192000F00AFACAF387011A2089
:103A500000F005FA322000F021FA044604F0C00418
:103A600009F00701284661F3DF00044321463220B4
:103A700000F0F5F9C5F3C701172000F0F0F9C9F31C
:103A8000C701182000F0EBF9BDE8F087000C0240F8
:103A9000000802408882414200004142A80241429F
:103AA0004D49443A25640D0A000000004849443A53
:103AB00025640D0A00000000F2E800087EEA000814
:103AC00054EA000862EA00088EEA00082DE9F04195
:103AD00004460D46E11704EB91718910A4EB8101B6
:103AE00011B10120BDE8F081E91705EB9171891052
:103AF000A5EB810109B10220F4E72046E11704EBB0
:103B00009171C1F38F072846E91705EB9171C1F355
:103B10008F060021FF2000F0A2F90421E02000F030
:103B20009EF9F9B25A2000F09AF9F1B25B2000F048
:103B300096F9C7F30128042000EAA61040EA080815
:103B400041465C2000F08BF90021E02000F087F96D
:103B50000020C7E72DE9F0478046894614461D46F8
:103B6000E11704EB91718910A4EB810111B10120DF
:103B7000BDE8F087E91705EB91718910A5EB81018C
:103B800009B10220F4E72046E11704EB9171C1F37B
:103B90008F062846E91705EB9171C1F38F0A0021C2
:103BA000FF2000F05CF90421E02000F058F9F1B2A8
:103BB000512000F054F90AF0FF01522000F04FF9B3
:103BC00008F0FF01532000F04AF909F0FF015420EA
:103BD00000F045F9802000EA6A07702000EA291009
:103BE0000743082000EA66100743C8F30220074392
:103BF0003946552000F033F9802000EAA60157200D
:103C000000F02DF90021E02000F029F90020AFE7B5
:103C100070B504460D460021FF2000F020F9042174
:103C2000E02000F01CF9C4F3C701C02000F017F930
:103C3000C5F3C701C12000F012F96007860E05F038
:103C400007000643802000EA2410064331468C20FA
:103C500000F005F90021E02000F001F9002070BD1E
:103C60001CB50121022000F013FE012000908DF808
:103C7000040000208DF8060003208DF805000120C7
:103C80008DF807006946994800F064FB0220009017
:103C900000208DF8040001208DF8060003208DF827
:103CA000050001208DF807006946904800F052FB9E
:103CB00003218E4800F0CAFB8C48006820F00C00FD
:103CC0008A4908600846006840F0040008601CBD8E
:103CD00010B50120864908608649C1F8800232206B
:103CE00000F024F9002082490860322000F01EF91B
:103CF00000208049C1F8800210BD10B500207C4929
:103D00000860322000F012F901207A49C1F88002DF
:103D1000322000F00BF9012075490860322000F0D4
:103D200005F910BD10B5322000F000F901207049EE
:103D300008607049C1F88002322000F0F7F80020D6
:103D40006B49091F0860322000F0F0F80020694933
:103D5000C1F88402322000F0E9F810BD70B50446C5
:103D600000261BE004F0800018B1012060490860C3
:103D700002E000205E4908606006040E322000F078
:103D8000D5F801205A49091F0860322000F0CEF80A
:103D900000205849C1F88002701CC6B2082EE1DB31
:103DA0005248006820F00C0050490860084600683E
:103DB0000860322000F0BAF801204D49091F086060
:103DC000322000F0B3F84B48D0F8040208B10125C6
:103DD00000E0002500204649091F086043480068AC
:103DE00020F00C00414908600846006840F00400DB
:103DF0000860284670BD70B500243C48006820F07B
:103E00000C003A490860084600680860082517E079
:103E1000322000F08BF801203549091F0860600648
:103E2000040E3448D0F8040208B1601CC4B2322039
:103E300000F07CF800202E49091F0860681EC5B2FA
:103E4000002DE5DC2948006820F00C0027490860B7
:103E50000846006840F004000860204670BD70B558
:103E600005460C460026FFF733FF6020FFF776FF7C
:103E700000B10126642000F059F82846FFF76EFFD4
:103E800000B10126642000F051F82046FFF766FFDC
:103E900000B10126FFF731FF304670BD70B5044612
:103EA0000025FFF715FF6020FFF758FF642000F0A2
:103EB0003DF82046FFF752FF642000F037F8FFF787
:103EC0001CFF642000F032F8FFF702FF6120FFF7CB
:103ED00045FF642000F02AF8FFF78DFF0546FFF745
:103EE00021FFFFF70AFF284670BD000000040240D2
:103EF000848240420080404210B504466FF00400C6
:103F000000F084F9E11704EB5171C1F3C701394A9C
:103F100011701046007800EB4001C1EBC0104FF665
:103F2000FF7101EAC0003449088010BD0146314AE2
:103F300012784A434FF0E0235A6100229A611A46F0
:103F4000126942F001021A6100BF4FF0E0221069CD
:103F500000F001021AB100F48032002AF5D04FF0CF
:103F6000E022126922F001024FF0E0231A610022E0
:103F70009A6170470146204A12884A434FF0E02375
:103F80005A6100229A611A46126942F001021A61CE
:103F900000BF4FF0E022106900F001021AB100F4F6
:103FA0008032002AF5D04FF0E022126922F001029F
:103FB0004FF0E0231A6100229A61704770B5044601
:103FC0004FF4077094FBF0F0C6B24FF4077094FB07
:103FD000F0F100FB114085B205E04FF40770FFF7E8
:103FE000C9FF701EC6B2002EF7D115B12846FFF7E3
:103FF000C1FF70BDFC040020FE04002000BF70471C
:1040000000BF4C4A128802F04002002AF9D0C2B226
:10401000484B9A80704710B588B004460121084685
:1040200000F036FC0121102000F08CFC0722092151
:10403000414800F01AFA07220A213F4800F015FA19
:104040004FF4C060069002208DF81C008DF81D0012
:1040500000208DF81E0001208DF81F0006A93648AB
:1040600000F078F902940020ADF80C00ADF80E00D5
:10407000ADF81000ADF814000C20ADF8120002A944
:104080002C4800F0C0FD01212A4800F044FE012226
:1040900040F22551274800F0F4FE25208DF8040059
:1040A00003208DF805008DF8060001208DF807002B
:1040B00001A800F05EF808B010BD10B540F225511F
:1040C0001C4800F019FF10B31A4800F053FEC4B2A8
:1040D0001A48008800F40040C8B91848008800F465
:1040E000804060B10A2C03D000201449088020E0F1
:1040F0001248008840F400401049088019E00D2C57
:1041000006D10E48008840F480400C49088010E039
:104110000A480088C0F30D0009490C54074800887C
:10412000401C0649088008460088C72801DD002099
:10413000088010BD0010014000000240040500206E
:104140007A9F01200648804706480047FEE7FEE7C1
:10415000FEE7FEE7FEE7FEE7FEE7FEE7FEE7FEE737
:10416000E10300088901000832490143324A116025
:10417000704770B5002100230F22C4781CB32E4C69
:10418000246804F4E064C4F5E064C4F30721C1F1D9
:104190000404E3B20A4144789C40E1B284781440BC
:1041A00021430C07210E254C05786155047804F055
:1041B0001F050124AC4005786D11AD0005F1E02527
:1041C000C5F8004109E0047804F01F050124AC4063
:1041D0001B4D0678761145F8264070BD194A0A40F5
:1041E0000243154B1B1F1A60704739B1124A121D4A
:1041F00012680243104B1B1D1A6006E00E4A121D86
:10420000126882430C4B1B1D1A607047042808D1AA
:104210004FF0E021096941F004014FF0E022116103
:1042200007E04FF0E021096921F004014FF0E0229E
:10423000116170470000FA050CED00E000E400E0B9
:1042400080E100E080FFFF1F10B5044698488442DB
:1042500008D10121084600F086FB0021012000F072
:1042600082FB76E09348844208D10121022000F0CD
:104270007AFB0021022000F076FB6AE08E4884423F
:1042800008D10121042000F06EFB0021042000F081
:104290006AFB5EE08948844208D10121082000F0D1
:1042A00062FB0021082000F05EFB52E0844884425B
:1042B00008D10121102000F056FB0021102000F051
:1042C00052FB46E07F48844208D10121202000F0C3
:1042D0004AFB0021202000F046FB3AE07A48844265
:1042E00008D10121402000F03EFB0021402000F0D9
:1042F0003AFB2EE07548844208D10121802000F06D
:1043000032FB0021802000F02EFB22E07048844226
:1043100008D10121801500F026FB0021A01500F036
:1043200022FB16E06B48844208D10121401500F0C1
:104330001AFB0021601500F016FB0AE06648844273
:1043400007D10121001500F00EFB0021201500F01F
:104350000AFB10BDF0B50A4600210023002400BF6F
:104360003DE0012505FA01F3156805EA03049C42C6
:1043700034D105684F000326BE40B543056015796A
:104380004E00B5400668354305601579012D02D011
:104390001579022D16D185684F000326BE40B5431E
:1043A000856055794E00B54086683543856045681F
:1043B00001268E40B5434560456896798E40B6B279
:1043C00035434560C5684F000326BE40B543C56010
:1043D000D5794E00B540C6683543C560491C1029E3
:1043E000BFD3F0BD4FF6FF71016000210171417133
:1043F0008171C171704708B54FF480320092009A04
:104400000A430092009AC261C161009AC261C26906
:104410000092C269009208BD0246002013690B4059
:104420000BB1012000E0002070470146086980B20E
:1044300070470246002053690B400BB1012000E099
:10444000002070470146486980B270470183704779
:10445000418370470AB1018300E0418370474161A5
:10446000704742694A4042617047F0B5002300241A
:104470004D07ED0E02FA05F3CE1000F1200555F8B8
:1044800026504E07F70E0F26BE40B543CF1000F161
:10449000200646F82750CE1000F1200555F826508A
:1044A00045EA0304CE1000F1200545F82640F0BD92
:1044B000000002400004024000080240000C0240DC
:1044C000001002400014024000180240001C02408C
:1044D000002002400024024000280240F948006801
:1044E00040F00100F74908600020F64908310860F3
:1044F000F4480068F4490840F2490860F348091D8F
:104500000860F348EF4984310860F0481038091D0D
:104510000860EC48006820F48020EA490860002028
:10452000E8490C310860E7498C3108607047002188
:10453000E44A921C117011460870704710B501468C
:104540000022002300204A11012A02D1DD4C2368F9
:1045500008E0022A03D1DB4C7034236802E0D94C16
:104560007434236801F01F02012494401C400CB1F4
:10457000012000E0002010BD38B50020009000248C
:10458000002500BF3120FFF7D9FF05460098401CE9
:1045900000900098B0F5A04F01D0002DF2D031204E
:1045A000FFF7CCFF08B1012400E00024204638BD0D
:1045B00001460020C34A106820F0F80040EAC1001C
:1045C00010607047C349086070470021BD4A7032CF
:1045D00011701170012802D004280AD104E00121D1
:1045E000B84A7032117005E00521B64A7032117078
:1045F00000E000BF00BF7047B7490860704770B562
:10460000049C41EA82150126C6EB530645EA06459D
:10461000054345EA0465AB4E361D356070BDAD49B6
:1046200008667047820142EA0172A64B84331A6021
:104630007047A8498866704710B5830143EA016353
:1046400043EA02739F4C8834236010BDA149086778
:104650007047A049C864704702460020994B083350
:10466000186820F0EC6042EA01031843954B0833C8
:104670001860704702460020924B0833186820F0FB
:10468000784042EA010318438E4B083318607047A4
:10469000014600208B4A0832106820F003000843CE
:1046A0001060704787480830006800F00C007047C1
:1046B00001460020834A0832106820F0F0000843C9
:1046C00010607047014600207E4A0832106820F4CE
:1046D000E05008431060704701460020794A0832D4
:1046E000106820F4604040EAC10010607047F0B5E7
:1046F000002100220024022500260223714F0837E2
:104700003F6807F00C0121B1042905D0082937D1F1
:1047100005E0724F076036E0714F076033E0694F84
:104720003F1D3F68C7F38056664F3F1D3F6807F047
:104730003F036EB16A4FB7FBF3F7DFF888C10CF1A6
:10474000040CDCF800C0CCF3881C07FB0CF40CE074
:10475000624FB7FBF3F7DFF86CC10CF1040CDCF827
:1047600000C0CCF3881C07FB0CF4564F3F1D3F687C
:10477000C7F301477F1C7D00B4FBF5F7076002E03B
:10478000564F076000BF00BF4E4F08373F6807F025
:10479000F0010909534F7A5C0768D7404760494FD9
:1047A00008373F6807F4E051890A4E4F7A5C476842
:1047B000D7408760434F08373F6807F46041490B93
:1047C000484F7A5C4768D740C760F0BD002100F4CD
:1047D0004072B2F5407F0AD13A4A0832116821F49A
:1047E000F811414A02401143364A08321160354AF5
:1047F00070321268C0F30B031A43324B70331A60E5
:10480000704735494439086070473349403908607A
:10481000704736490860704701460020294A8C32AB
:10482000106820F01F004A1E1043264A8C32106088
:10483000704701460020234A8C32106820F4F8505B
:104840004A1E40EA02201F4A8C321060704701461F
:1048500000201C4A8C32106820F44010084310607D
:10486000704701460020174A8C32106820F440003F
:1048700008431060704701460020124A8C321068CD
:1048800020F44030084310607047194908607047B1
:1048900039B10C4A3032126802430A4B30331A6085
:1048A00006E0084A303212688243064B30331A6001
:1048B0007047F9B1034A343212680243014B343372
:1048C0001A601CE000380240FFFFF6EA10300024B6
:1048D0000030002000004742800E47420024F400D0
:1048E00000127A0006050020FFFCFF0F5C01474222
:1048F000E01147428F4A126882438E4B1A6070471C
:1049000039B18C4A121D126802438A4B1B1D1A6072
:1049100006E0884A121D12688243864B1B1D1A60EE
:10492000704739B1834A0C3212680243814B0C3311
:104930001A6006E07F4A0C32126882437D4B0C33CA
:104940001A60704739B17B4A103212680243794BC2
:1049500010331A6006E0774A103212688243754BB2
:1049600010331A60704739B1724A243A1268024310
:10497000704B243B1A6006E06E4A243A1268824368
:104980006C4B243B1A60704739B16A4A203A12686E
:104990000243684B203B1A6006E0664A203A1268E0
:1049A0008243644B203B1A60704739B1614A1C3A1C
:1049B000126802435F4B1C3B1A6006E05D4A1C3ADA
:1049C000126882435B4B1C3B1A60704739B1594AED
:1049D000143A12680243574B143B1A6006E0554ADA
:1049E000143A12688243534B143B1A60704739B132
:1049F000504A103A126802434E4B103B1A6006E0D0
:104A00004C4A103A126882434A4B103B1A60704776
:104A100039B1484A1C3212680243464B1C331A60B3
:104A200006E0444A1C3212688243424B1C331A602F
:104A3000704739B13F4A2032126802433D4B203360
:104A40001A6006E03B4A203212688243394B203319
:104A50001A60704739B1374A243212680243354B25
:104A600024331A6006E0334A243212688243314B01
:104A700024331A60704739B12E4A2C32126802432F
:104A80002C4B2C331A6006E02A4A2C3212688243DF
:104A9000284B2C331A60704739B1264A30321268DD
:104AA0000243244B30331A6006E0224A3032126847
:104AB0008243204B30331A607047012808D11D49CA
:104AC0003C31096841F008011A4A3C32116007E0A4
:104AD00018493C31096821F00801164A3C3211603E
:104AE000704739B1134A273A12780243114B273BDA
:104AF0001A7006E00F4A273A127882430D4B273B83
:104B00001A7070470B484030006840F080700949C7
:104B100040310860704701460020064A283A126872
:104B20000A400AB1012000E00020704701492639FF
:104B3000087070473438024010B50446FA48844281
:104B400008D101211020FFF752FF00211020FFF7AC
:104B50004EFF57E0F548844209D101214804FFF790
:104B600035FF00214FF40030FFF730FF4AE0F048F6
:104B7000844209D101218804FFF728FF00214FF466
:104B80008020FFF723FF3DE0EA48844209D101215C
:104B9000C804FFF71BFF00214FF40020FFF716FFAA
:104BA00030E0E548844209D101210805FFF70EFFF6
:104BB00000214FF48010FFF709FF23E0DF48844213
:104BC00008D101212020FFF712FF00212020FFF74C
:104BD0000EFF17E0DA48844209D101218807FFF768
:104BE000F5FE00214FF08040FFF7F0FE0AE0D548C7
:104BF000844207D101214005FFF7E8FE002160054E
:104C0000FFF7E4FE10BD2DE9FF4705460E460024E0
:104C1000A14600BFA046B08900B100BF2C8A24F491
:104C20004054F08804432C82AC8941F20C608443E8
:104C3000B08831890843718908430443AC81AC8A48
:104C400024F44074B0890443AC826846FFF74FFDFA
:104C5000B548854202D0B948854202D1DDF80C90B2
:104C600001E0DDF80890A88900F4004040B109EBAC
:104C7000C90000EB091031684900B0FBF1F707E00B
:104C800009EBC90000EB091031688900B0FBF1F7AE
:104C90006420B7FBF0F004012009642101FB1078C7
:104CA000A88900F4004040B1322000EBC800B0FBFE
:104CB000F1F000F00700044308E0322000EB081098
:104CC0006421B0FBF1F000F00F0004432C81BDE83B
:104CD000FF874FF41651016000218180C18001815E
:104CE0000C21418100218181704710B502460020CE
:104CF000108A20F470600B884C8823438C882343EF
:104D0000CC8823431843108210BD002101804180CC
:104D10008180C180704721B1828942F40052828132
:104D200004E082894DF6FF731A4082817047028B3E
:104D300002F47F420283028B0A430283704721B14F
:104D4000828942F40042828103E08289C2F30E022A
:104D50008281704721B1828A42F40062828204E03B
:104D6000828A4FF2FF731A4082827047C1F30802B1
:104D70008280704701468888C0F308007047028A25
:104D80004FF6F0731A400282028A0A430282704789
:104D900021B1828942F00202828104E082894FF6C9
:104DA000FD731A408281704782894FF2FF731A4067
:104DB000828182890A4382817047028A4FF6DF73BB
:104DC0001A400282028A0A430282704721B1028A93
:104DD00042F48042028204E0028A4BF6FF731A40DA
:104DE00002827047818941F001018181704721B1C0
:104DF000828A42F00802828204E0828A4FF6F773C8
:104E00001A4082827047028BD2B20283028B42EA3E
:104E100001220283704721B1828A42F020028282FD
:104E200004E0828A4FF6DF731A408282704721B114
:104E3000828A42F01002828204E0828A4FF6EF7387
:104E40001A4082827047828A4FF6FB731A40828230
:104E5000828A0A438282704721B1828A42F002022A
:104E6000828204E0828A4FF6FD731A408282704784
:104E70001AB1838A0B43838202E0838A8B43838245
:104E80007047F0B50346002400260025002040F6B8
:104E90006A17B94200D100BF1846C1F3421401F0AD
:104EA0001F06012707FA06F5012C01D10C3004E09A
:104EB000022C01D1103000E014301AB107682F43E2
:104EC000076002E00768AF430760F0BD02460020BC
:104ED000B1F5007F00D100BF13880B400BB101205A
:104EE00000E00020704701F40072B2F5007F00D1AD
:104EF00000BFCA430280704770B5024600240023F9
:104F00000025002040F66A16B14200D100BFC1F36F
:104F1000421501F01F03012606FA03F3012D13D1F8
:104F20009689334017E00000001001400044004023
:104F300000480040004C0040005000400014014078
:104F400000780040007C0040022D02D1168A3340D8
:104F500001E0968A33400C12012606FA04F4168802
:104F6000344013B10CB1012000E0002070BD10B539
:104F70000022002340F66A14A14200D100BF0A12A9
:104F800001249440A3B2DC43048010BD016821F0E9
:104F9000010101600021016041608160C160016127
:104FA00021214161DB49884204D13D21D94A103A8F
:104FB00091608CE0D7491831884205D14FF4746173
:104FC000D44A103A916082E0D2493031884205D10A
:104FD0004FF47411CF4A103A916078E0CD494831CE
:104FE000884205D14FF07461CA4A103A91606EE070
:104FF000C8496031884204D1C749C64A103AD160D5
:1050000065E0C4497831884204D1C449C14A103AA4
:10501000D1605CE0BF499031884204D1C049BD4AAB
:10502000103AD16053E0BB49A831884205D14FF016
:105030003D51B84A103AD16049E0BA49884204D19A
:105040003D21B84A083A116041E0B649183188421A
:1050500005D14FF47461B34A083A116037E0B149A1
:105060003031884205D14FF47411AE4A083A1160CC
:105070002DE0AC494831884205D14FF07461A94A0E
:10508000083A116023E0A7496031884204D1A2495F
:10509000A44A121F11601AE0A2497831884204D153
:1050A0009E49A04A121F116011E09E49903188422A
:1050B00004D19B499B4A121F116008E09949A8310D
:1050C000884204D14FF03D51964A121F116070473B
:1050D00010B500220268944B1A40CC680B68234339
:1050E0004C6923438C692343CC6923430C6A2343D3
:1050F0004C6A23438C6A23434C6B23438C6B2343BE
:105100001A430260426922F00702D1E90B342343BB
:105110001A4342610B6943604B6883608B68C360CC
:1051200010BD0021016041608160C1600161416189
:105130008161C161016241628162C1620163416357
:105140008163704721B1026842F00102026003E00E
:10515000026822F001020260704721B1026842F445
:105160000042026003E0026822F4004202607047DD
:1051700021B1026842F02002026003E0026822F0DE
:10518000200202607047416070470146486880B263
:10519000704722B1036843F40023036003E003680F
:1051A00023F4002303600161704721B1026842F4D7
:1051B0008022026003E0026822F4802202607047CD
:1051C0000AB1016100E0C1607047014600200A6831
:1051D00002F400220AB1012000E0002070470146DD
:1051E00000200A6802F001020AB1012000E000205C
:1051F0007047014600204A6902F03800704730B518
:1052000003460A4600200024464DAB4202D24149E3
:10521000103901E04349103902F000550DB14C68D6
:1052200000E00C68414D2C4004EA02050DB101205C
:1052300000E0002030BD02463A4B9A4202D2354887
:10524000103801E03748103801F000531BB1374BDC
:105250000B40C36002E0354B0B408360704710B5D4
:1052600001F080034BB122B1436943F080034361F5
:1052700003E0436923F08003436180290BD02AB106
:10528000036801F01E042343036004E0036801F097
:105290001E04A343036010BD70B502460020002425
:1052A0000025204EB24202D21A4B103B01E01D4BAA
:1052B000103B1F4E0E4036B11E2606EAD12416685A
:1052C00006EA040502E0566906F0800501F0005682
:1052D0000EB15C6800E01C68144E344004EA01061C
:1052E00016B10DB1012000E0002070BD02460D4B4B
:1052F0009A4202D20748103801E00A48103801F0FB
:1053000000531BB1094B0B40C36002E0074B0B403D
:1053100083607047106002403D000020400F002075
:1053200000003D20106402403F801CF07D0F7D0F87
:105330003C0F3C0F10B50446FE48844208D10121C1
:105340000846FFF754FB00210120FFF750FB9DE0CA
:10535000B4F1804F08D101210846FFF737FB002147
:105360000120FFF733FB91E0F348844208D101218B
:105370000220FFF72BFB00210220FFF727FB85E02F
:10538000EE48844208D101210420FFF71FFB0021D1
:105390000420FFF71BFB79E0E948844208D1012192
:1053A0000820FFF713FB00210820FFF70FFB6DE03B
:1053B000E448844208D101211020FFF707FB0021B7
:1053C0001020FFF703FB61E0DF48844208D1012190
:1053D0002020FFF7FBFA00212020FFF7F7FA55E025
:1053E000DA48844208D101210220FFF700FB0021A6
:1053F0000220FFF7FCFA49E0D548844209D1012197
:105400000804FFF7F4FA00214FF48030FFF7EFFAB9
:105410003CE0D048844209D101214804FFF7E7FA73
:1054200000214FF40030FFF7E2FA2FE0CA4884422F
:1054300009D101218804FFF7DAFA00214FF4802016
:10544000FFF7D5FA22E0C548844208D10121402067
:10545000FFF7BCFA00214020FFF7B8FA16E0C04879
:10546000844208D101218020FFF7B0FA002180207A
:10547000FFF7ACFA0AE0BB48844207D1012180154E
:10548000FFF7A4FA0021A015FFF7A0FA10BD002233
:105490000288A84B98420ED0AC4B98420BD0B0F18A
:1054A000804F08D0A44B984205D0A44B984202D01C
:1054B000A34B984204D14FF68F731A404B881A437E
:1054C000A04B984207D0A04B984204D04FF6FF4320
:1054D0001A400B891A4302804B68C3620B8803850C
:1054E000944B984202D0994B984201D18B7A038613
:1054F0000123838270474FF0FF314160002101801A
:1055000001814180817270470185828270470A461D
:10551000002101884FF68F731940114301807047B5
:1055200041627047C16270470146486A7047014650
:10553000088D704721B1028842F00202028004E027
:1055400002884FF6FD731A400280704721B102882D
:1055500042F00402028004E002884FF6FB731A4016
:105560000280704721B1028842F08002028004E08C
:1055700002884FF67F731A400280704702884FF608
:10558000F7731A40028002880A430280704702883B
:105590004FF6FF431A40028002880A430280704798
:1055A00021B1028842F00102028004E002884FF635
:1055B000FE731A400280704770B500240022002359
:1055C000058C4FF6FE7635400584028C8388048B6B
:1055D0004FF68F752C40B51E2C400D882C43751E40
:1055E0002A408D892A434D882A43524DA84202D031
:1055F000564DA84213D14FF6F7752A40CD892A435C
:105600004FF6FB752A408D882A434FF6FF652B40E5
:105610004FF6FF552B400D8A2B434D8A2B43838039
:1056200004838D684563028470BD70B50024002238
:105630000023058C4FF6EF7635400584028C838875
:10564000048B48F6FF752C404FF6FF452C400D8823
:105650004FF6FF7606EA05252C434FF6DF752A4004
:105660008D8906EA05152A434D8806EA05152A4361
:10567000304DA84202D0354DA8421DD14FF67F755E
:105680002A40CD894FF6FF7606EA05152A434FF6E4
:10569000BF752A408D8806EA05152A434FF6FF3567
:1056A0002B404FF2FF752B400D8A06EA85052B43F0
:1056B0004D8A06EA85052B43838004838D688563C4
:1056C000028470BD70B5002400220023058C4FF6C3
:1056D000FF6635400584028C8388848B4FF68F7576
:1056E0002C404FF6FC752C400D882C434FF6FF558F
:1056F0002A408D894FF6FF7606EA05252A434D8814
:1057000006EA05252A430B4DA84202D00F4DA842B8
:1057100038D14FF2FF752A40CD894FF6FF7606EA61
:1057200005252A434FF6FF352A408D8806EA0525D0
:105730002A4319E000000140000400400008004036
:10574000000C004000100040001400400004014024
:105750000040014000440140004801400018004062
:10576000001C0040002000404EF6FF752B404DF617
:10577000FF752B400D8A06EA05152B434D8A06EA74
:1057800005152B43838084838D68C563028470BDB7
:1057900070B5002200230024058C4EF6FF763540BC
:1057A0000584038C8488828B48F6FF752A404FF667
:1057B000FF452A400D884FF6FF7606EA05252A4365
:1057C0004DF6FF752B408D8906EA05352B434D8834
:1057D00006EA05352B43FE4DA84202D0FD4DA842F6
:1057E00008D14BF6FF752C400D8A4FF6FF7606EA7E
:1057F00085152C43848082838D680564038470BD85
:10580000002101804180818081608181C18101828C
:105810004182704770B503460020002418461830B6
:1058200001258D40ACB21D8CA5431D8409B108290A
:105830000AD100EB610005684FF68F7635400560B0
:105840000568154305600FE00D1FC5F34E0528449C
:10585000056848F6FF763540056005684FF6FF7627
:1058600006EA02263543056070BD416370478163D7
:105870007047C1637047016470470A460021018B7D
:105880004FF68F7319401143018370470A46002178
:10589000018B48F6FF7319404FF6FF7303EA0223AA
:1058A0001943018370470A460021818B4FF68F739D
:1058B00019401143818370470A460021818B48F6C5
:1058C000FF7319404FF6FF7303EA022319438183E4
:1058D00070470A460021018B4FF6F77319401143B8
:1058E000018370470A460021018B4FF2FF73194074
:1058F0004FF6FF7303EA02231943018370470A46F8
:105900000021818B4FF6F773194011438183704753
:105910000A460021818B4FF2FF7319404FF6FF7347
:1059200003EA02231943818370470A460021018B51
:105930004FF6FB7319401143018370470A4600215B
:10594000018B4FF6FF3319404FF6FF7303EA022332
:105950001943018370470A460021818B4FF6FB7380
:1059600019401143818370470A460021818B4FF60D
:10597000FF3319404FF6FF7303EA02231943818373
:1059800070470A460021018B4FF67F73194011437F
:10599000018370470A460021018BC1F30E014FF6C7
:1059A000FF7303EA02231943018370470A4600216B
:1059B000818B4FF67F7319401143818370470A46EC
:1059C0000021818BC1F30E014FF6FF7303EA02231E
:1059D0001943818370470A460021018C4FF6FD73FD
:1059E00019401143018470470A460021018C4FF68B
:1059F000F77319401143018470470A460021018C56
:105A00004FF6DF7319404FF6FF7303EA0213194391
:105A1000018470470A460021018C4FF67F731940BC
:105A20004FF6FF7303EA02131943018470470A46D5
:105A30000021018C4FF6FF5319404FF6FF7303EA24
:105A400002231943018470470A460021018C4FF25A
:105A5000FF7319404FF6FF7303EA022319430184D1
:105A600070470A460021018C4DF6FF7319404FF62E
:105A7000FF7303EA023319430184704730B50023F2
:105A800001248C40A3B2048C9C430484048C02FA4D
:105A900001F5ADB22C43048430BD30B5002304249D
:105AA0008C40A3B2048C9C430484048C02FA01F55C
:105AB000ADB22C43048430BD828B4FF2FF331A40C9
:105AC0008283828B4FF6FF7303EA01231A4382839A
:105AD0007047F0B50C461546002100220026078CC1
